:1006040053656C662D74657374696E670053656C0D
:10061400662D746573740053756363657373212168
:10062400210054656D70657261747572653A00538A
:100634006F696C204D6F6973747572653A00576108
:10064400746572204C6576656C3A00416972204D80
:100654006F6973747572653A004C696768742049F0
:100664006E74656E736974793A00536869656C6475
:1006740020526973696E6700536869656C6420521F
:100684006973656400536869656C642046616C6CC9
:10069400696E6700536869656C642046616C6C65BB
:1006A400640050756D7020576F726B696E670050EF
:1006B400756D7020576F726B6564203373005370CF
:1006C40072617920576F726B20426567696E0053BF
:1006D4007072617920576F726B2053746F70004C85
:1006E400454420576F726B20426567696E004C4524
:1006F4004420576F726B2053746F70004155544FF0
:1007040020576F726B20426567696E004155544FE4
:1007140020576F726B2053746F700050756D70208A
:10072400416C6C6F770050756D70204E4F542041B2
:050734006C6C6F770002
:100CA200013A0001330001550002560000023D00E6
:100CB200000145000258000002430000023400E631
:100CC2000253008002290000022F0000022D0017AB
:030CD200012100FD
:0C0E2200120E2ED285120E2EC285D28632
:030E2E000000229F
:050E12000D7F017E00D0
:0B0E1700EF1FAC0670011E4C70F622AD
:100B2500C2A5C2A78B807F017E00120B50D2A77F82
:100B3500017E00120B50C2A7EBC454F0F5807F0173
:0B0B45007E00120B50D2A77F017E0043
:100B5000D3EF9400EE940040147D6E7C00ED1D7088
:0D0B6000011CED4C70F7EF1F70E61E80E3E6
:010B6D002265
:100D3200C2B600E4FEEFC4131313540124FF92B4AD
:0E0D4200EF25E0FFC2B600D2B6000EBE08E7F5
:010D50002280
:100D5100E4FFFEC2B600FDEF25E0FFEE33FED2B6A2
:0E0D610000C2B600A2B7E43342070DBD0CE994
:010D6F002261
:100DA700E4FDFCC2B6C2B5120D327F06DFFED2B635
:090DB70000C2B600120D51D2B5C4
:010DC0002210
:100AC800E4FFFEC284C285D286120E22D285120E9F
:100AD8002EC285A2009286120E22FDD285120E2EFB
:100AE800C285120E2EEF25E0FFA286E4334FFF0DDC
:100AF800BD08E8E4FDA286E433FCA805088002C32B
:100B080033D8FC4206D285120E2EC285120E2E0D47
:0C0B1800BD08E2D284EFB50601227F0088
:010B240022AE
:0A0E3100AB07C2A6120B25C2A722D0
:0A0DD800AB09AA0AA90B1201C8FF1B
:0A0DE200AB07D2A6120B25C2A72210
:100DEC007F28120E317F0C120E317F06120E317FCE
:040DFC0001020E31B1
:050E67007F01020E31C5
:050739007BFFE4FDFF61
:08073E008F088B098A0A890B60
:10074600E4F50CEDD3940140030207D0E508940FBD
:100756005078EDC394015039AB09AA0AA90B1201CE
:10076600C86067C374109508FFE50CC39FE50C507D
:1007760006248025088004250824B0FF120E3112B5
:100786000DD87401250BF50BE4350AF50A050C8026
:10079600C7AB09AA0AA90B1201C8602EC37410952B
:1007A60008FFE50CC39FE50C500624C0250880040D
:1007B60025082470FF120E31120DD87401250BF591
:0A07C6000BE4350AF50A050C80C7A4
:0107D0002206
:100A590075900FE590640F60607FE87E03120E17B2
:100A6900E590640F605675900FAF90EF24F5601014
:100A790024FE601114601324077012752101800D82
:100A8900752102800875210380037521047590F092
:100A9900AF90EF2450600C24E0600C24F0600C242B
:100AA90070800E7404800674088002740C2521F588
:0E0AB90021E59064F0600580F8E4F521AF219E
:010AC700220C
:06097700AF0A050AAD08FD
:10097D00AE07ED7005C374079FFEEEB4080050522C
:10098D00900994F82828730209AC0209B00209B441
:10099D000209BA0209C00209C90209D20209D6D256
:1009AD00B08031D2B08002C2B0D2B18029C2B0D2F3
:1009BD00B18004C2B0C2B1D2B2C2B322C2B0C2B110
:1009CD00D2B2D2B322C2B08002D2B0C2B1C2B2D2C0
:0A09DD00B322C2B0C2B1C2B2C2B36D
:0109E70022ED
:100E0000C2A47F4B7E00120E17D2A47F027E000286
:020E10000E17BB
:100C6D00E4FD30A40BEDC394145005120E1280F266
:100C7D00EDC3941440037F0122E4FD20A40BEDC3CA
:100C8D0094145005120E1280F2EDC3941440037F9C
:040C9D0001227F00B1
:010CA1002230
:100D7000E4FDC2A40000D2A4000030A4030D800250
:0B0D8000E4FD7F057E00120E17AF059A
:010D8B002245
:100D8C00E4FBFAFF120D70EFC43333335480FEEAE8
:0A0D9C00C3134EFA0BBB08ECAF02C4
:010DA600222A
:080C3500120E00120C6D7FCCC1
:020C3D00AD0701
:100C3F00E4FBED5401FAEDC313FDEA600FC2A4000B
:100C4F0000D2A47F067E00120E17800DC2A47F066D
:0D0C5F007E00120E17D2A400000BBB08D5BA
:010C6C002265
:080E3B00120C357F44020C3D4E
:060E6100120E00020C6DF0
:100DC100D2A3120E13C2A37F197E00120B50D2A31D
:070DD1007F037E00020E17F4
:100CD600E4FF20A30AEFC3946450040F0080F3EFEF
:100CE600C3946440037F0122E4FF30A30AEFC39458
:100CF6006450040F0080F3EFC3946440037F012225
:020D06007F006C
:010D080022C8
:080E4300D2A3120DC1020CD66E
:100BFB00E4FDFBFA20A30AEBC3943250040B0080F4
:100C0B00F3E4FB7F03FE120E17E4F930A301093066
:100C1B00A30AEBC3946450040B0080F3ED25E0FDB5
:090C2B00E942050ABA08CDAF0543
:010C3400229D
:1009E800E4FFF9F50CF50D120E3B120C357FBE1223
:1009F8000C3D120D8CA907120D8CEFFE7C00E4292A
:100A0800F50DEC3EF50C54F8FEEEB4F821E50DF4C6
:100A1800FFE50CF4FEEF2401F50DE43EF50CFCAD0A
:100A28000DE412010EE4FBFA798078BD800FAC0C5E
:100A3800AD0DE412010EE4FBFA7980783D12000353
:100A48008F0B8E0A8D098C08AF0BAE0AAD09AC0866
:010A5800227B
:050E6C00C200020AC8EB
:050E7100D200020AC8D6
:100BB600120DC1120CD6EF703BF50D120BFB74082B
:100BC600250DF8A607050DE50DC3940540EDE508CE
:100BD6002509FFE433FE7C00EF250AFFEC3EFEEF1D
:100BE600250BFFEC3EFEEFB50C0AECB506068508B4
:040BF60033850A3AFF
:010BFA0022D8
:050E76007FE4020DA75E
:0307D100E4FFFE44
:1007D400AB07AA06EB653E7003EA653D70030208A9
:0107E40066AE
:1007E500E4F508750901F50AF50BF50C750D1D7590
:1007F5000E4CEB64014A702DD3E50C950EE50B9577
:100805000D501C120977050CE50C7002050BE50A65
:10081500B40803E4F50AAF097E00120B5080D975C0
:100825003D00753E01EB4A7038E50870047F018094
:10083500027F008F08D3E50C950EE50B950D501C36
:10084500120977050CE50C7002050BE50AB40803DF
:10085500E4F50AAF097E00120B5080D9E4F53DF5A9
:010865003E54
:01086600226F
:080E4B00D2A0120B50C2A0223C
:070E5300EE4F24FF92A122E3
:070E5A00EE4F24FF92A222DB
:100244001209E8E4FBFA792078411200031201470D
:100254008E3B8F3CC3E53B94005010C3E4953CF5C2
:100264003CE4953BF53B754B2D8003754B20C3E572
:100274003C94E8E53B94034012AE3BAF3C7C037DE9
:10028400E81201E1EF2430F54C8003754C20AE3BBD
:10029400AF3C7C037DE81201E1AA04AB057D647CDC
:1002A40000AF03AE021201E1EF2430F54D7D647C12
:1002B40000AF03AE021201E1AA04AB057D0A7C0083
:1002C400AF03AE021201E1EF2430F54E754F2E7DDF
:1002D4000A7C00AF03AE021201E1ED2430F5507543
:1002E4005143E4F552120E6C752B008F2CAE2B7C0F
:1002F400037DE81201E1AA04AB057D647C00AF0331
:10030400AE021201E1EF2430F5367D647C00AF03C8
:10031400AE021201E1AA04AB057D0A7C00AF03AE74
:10032400021201E1EF2430F5377D0A7C00AF03AE01
:10033400021201E1ED2430F538E4F539120E71753D
:1003440031008F32AE317C037DE81201E1AA04ABA7
:10035400057D647C00AF03AE021201E1EF2430F5A9
:100364003F7D647C00AF03AE021201E1AA04AB0539
:100374007D0A7C00AF03AE021201E1EF2430F540A8
:100384007D0A7C00AF03AE021201E1ED2430F54199
:10039400E4F542120BB6E53A75F00A842430F526EA
:1003A400E53A75F00A84E5F02430F527E4F528E50C
:1003B4003375F00A842430F546E53375F00A84E594
:1003C400F02430F547E4F548120E767556008F5741
:1003D400AE567C037DE81201E1AA04AB057D647C82
:1003E40000AF03AE021201E1EF2430F5227D647CFC
:1003F40000AF03AE021201E1AA04AB057D0A7C0042
:10040400AF03AE021201E1EF2430F5237D0A7C0034
:10041400AF03AE021201E1ED2430F524E4F5252208
:100B6E00120DEC7A067904120739E4F549F54A12AA
:100B7E000E61120E431207D17FF47E01120E4BE46A
:100B8E00FFFE120E53120E5AE4F558F559F543F5C1
:100B9E0044120DEC7A0679111207397BFF7A067929
:080BAE001B7D01E4FF02073E7C
:10042400120A598F45E54514B40C00400302060333
:1004340090044275F003A4C58325F0C583730204B8
:100444006602047D0204940204AB0204C20204DCCA
:1004540002052202054402057102059E0205CF022F
:100464000600120DEC7BFF7A067926E4FDFF1207E5
:100474003E7B007A00794B805A120DEC7BFF7A06A2
:100484007933E4FDFF12073E7B007A00793680431E
:10049400120DEC7BFF7A067942E4FDFF12073E7BE6
:1004A400007A00793F802C120DEC7BFF7A06794F9D
:1004B400E4FDFF12073E7B007A0079468015120D99
:1004C400EC7BFF7A06795DE4FDFF12073E7B007A40
:1004D4000079227D01E48064E53E453D7021120DE2
:1004E400EC7BFF7A06796EE4FDFF12073E7F017E06
:1004F400001207D4120DEC7BFF7A06797C801B1264
:100504000DEC7BFF7A067989E4FDFF12073E1207A2
:10051400D1120DEC7BFF7A067998E4FD801E120D52
:10052400EC7BFF7A0679A6E4FDFF12073E7FB87ED6
:100534000B120E4B7BFF7A0679B3E4FDFF02073EF4
:1005440020A115120DEC7BFF7A0679C2E4FDFF129F
:10055400073E7F017E008012120DEC7BFF7A067944
:10056400D3E4FDFF12073EE4FFFE020E5320A21562
:10057400120DEC7BFF7A0679E3E4FDFF12073E7F60
:10058400017E008012120DEC7BFF7A0679F2E4FD05
:10059400FF12073EE4FFFE020E5AE5594558701655
:1005A400120DEC7BFF7A077900E4FDFF12073E751C
:1005B400580075590122120DEC7BFF7A077910E47B
:1005C400FDFF12073EE4F558F55922E54445437012
:1005D40016120DEC7BFF7A07791FE4FDFF12073E2C
:1005E40075430075440122120DEC7BFF7A07792ACA
:1005F400E4FDFF12073EE4F543F54422120B6E229C
:1008F300D3E53C9535E53B953440077F017E0012F7
:1009030007D4C3E53C9535E53B95345006E4FFFE3B
:100913001207D4D3E5579554E556955340077F0105
:100923007E00120E5AC3E5579554E556955350066B
:10093300E4FFFE120E5AC3E533952EE4952D5007BE
:100943007F017E00120E53D3E533952EE4952D409F
:1009530006E4FFFE120E53D3E5329530E531952FB1
:10096300500FE5446401454370077FE87E03120E90
:040973004B020244ED
:100D0900120B6E054AE54A70020549B4F00DE54932
:100D1900B45508120244E4F549F54A120424E55988
:090D2900455860DF1208F380DA7E
:10000300EC4D6011E8497017ED33EC3304600DE4F7
:10001300FCFFFEFD22E933E8330470F80201B3125A
:10002300017E58046009E4CC24815006285009025B
:1000330001BD2840030201BAC0E0EB4A7044B98015
:1000430006D0E0FB0201A9EF4E701CBD8008EBFF58
:10005300EAFEE9FD80EBE98DF0A4FEE5F00200EC99
:10006300E9CDF9EAFEEBFFEF89F0A4FCE5F0CE89D8
:10007300F0A42EFFE435F0CD89F0A42DFEE435F095
:100083008067EF4E7005BD80D780C3EF8BF0A4ACC3
:10009300F0EE8BF0A42CFCE435F0F8EF8AF0A42CFE
:1000A300E5F038FCE433CB8DF0A42CFCE5F03BF811
:1000B300EE8AF0A42CFCE5F038F8E433CF89F0A401
:1000C3002CFCE5F038CF3400CE89F0A42FFFE5F007
:1000D3003EFEE433C98DF0A42EFEE5F039CD8AF05F
:1000E300A42FFFE5F03EFEE43DFD33D0E0FB5007D7
:1000F3000BBB000F0201BDEC2CFCEF33FFEE33FE14
:06010300ED33FD02019541
:1001090075F020800E75F010800575F0087D007E71
:10011900007F003392D530D503120236EC334010FC
:10012900EF33FFEE33FEED33FDEC33FCD5F0ED227A
:0E013900E5F0247EA2D513CC92E7CDCEFF22B6
:10014700EDD2E7CD33EC3392D524814006E4FFFEB0
:10015700FDFC22FCE4CFCECDCC24E0501174FF800F
:10016700EDC3CC13CCCD13CDCE13CECF13CF0470AC
:07017700F030D5DE02023674
:10017E00E9D2E7C933E833F892D5EDD2E7CD33ECC7
:07018E0033FC5002B2D52240
:10019500EC30E7100FBF000C0EBE00080DBD0004CB
:1001A5000BEB6014A2D5EB13FCED92E7FD2274FF77
:1001B500FCFDFEFF22E480F8A2D574FF13FC7D80D0
:0301C500E480EFE4
:030000000208678C
:0C086700787FE4F6D8FD7581590208AED8
:1001C800BB010689828A83E0225002E722BBFE0235
:0901D800E32289828A83E4932268
:1001E100BC000BBE0029EF8DF084FFADF022E4CC02
:1001F100F875F008EF2FFFEE33FEEC33FCEE9DECCB
:10020100984005FCEE9DFE0FD5F0E9E4CEFD22ED10
:10021100F8F5F0EE8420D21CFEADF075F008EF2F5A
:10022100FFED33FD4007985006D5F0F222C398FD4B
:050231000FD5F0EA22E8
:0E023600C3E49FFFE49EFEE49DFDE49CFC22D9
:10087300020D09E493A3F8E493A34003F68001F285
:1008830008DFF48029E493A3F85407240CC8C33386
:10089300C4540F4420C8834004F456800146F6DF55
:1008A300E4800B0102040810204080900CA2E47E37
:1008B300019360BCA3FF543F30E509541FFEE4934A
:1008C300A360010ECF54C025E060A840B8E493A311
:1008D300FAE493A3F8E493A3C8C582C8CAC583CA3C
:1008E300F0A3C8C582C8CAC583CADFE9DEE780BEF4
:010CD500001E
:00000001FF
