:10059E0053656C662D74657374696E670053656C74
:1005AE00662D7465737400537563636573732121CF
:1005BE00210054656D70657261747572653A0053F1
:1005CE006F696C204D6F6973747572653A0057616F
:1005DE00746572204C6576656C3A00416972204DE7
:1005EE006F6973747572653A004C69676874204957
:1005FE006E74656E736974793A00536869656C64DC
:10060E0020526973696E6700536869656C64205285
:10061E006973656400536869656C642046616C6C2F
:10062E00696E6700536869656C642046616C6C6521
:10063E00640050756D7020576F726B696E67005055
:10064E00756D7020576F726B656420357300537033
:10065E0072617920576F726B20426567696E005325
:10066E007072617920576F726B2053746F70004CEB
:10067E00454420576F726B20426567696E004C458A
:0C068E004420576F726B2053746F700093
:100C5400013200012D00014900024A000002350062
:070C640000013B000121002B
:0C0CCD00120CD9D285120CD9C285D28637
:030CD900000022F6
:050CBD000D7F017E0027
:0B0CC200EF1FAC0670011E4C70F62204
:100A0100C2A5C2A78B807F017E00120A2CD2A77FCC
:100A1100017E00120A2CC2A7EBC454F0F5807F01BD
:0B0A21007E00120A2CD2A77F017E008D
:100A2C00D3EF9400EE940040147D6E7C00ED1D70AD
:0D0A3C00011CED4C70F7EF1F70E61E80E30B
:010A4900228A
:100BC500C2B600E4FEEFC4131313540124FF92B41C
:0E0BD500EF25E0FFC2B600D2B6000EBE08E764
:010BE30022EF
:100BE400E4FFFEC2B600FDEF25E0FFEE33FED2B611
:0E0BF40000C2B600A2B7E43342070DBD0CE903
:010C020022CF
:100C3A00E4FDFCC2B6C2B5120BC57F06DFFED2B612
:090C4A0000C2B600120BE4D2B5A1
:010C5300227E
:1009A400E4FFFEC284C285D286120CCDD285120C1D
:1009B400D9C285A2009286120CCDFDD285120CD923
:1009C400C285120CD9EF25E0FFA286E4334FFF0D58
:1009D400BD08E8E4FDA286E433FCA805088002C350
:1009E40033D8FC4206D285120CD9C285120CD90D1B
:0C09F400BD08E2D284EFB50601227F00AE
:010A000022D3
:0A0CDC00AB07C2A6120A01C2A7224C
:0A0C8300AB09AA0AA90B1201C8FF71
:0A0C8D00AB07D2A6120A01C2A7228B
:100C97007F28120CDC7F0C120CDC7F06120CDC7F29
:040CA70001020CDC5E
:050D12007F01020CDC72
:05069A007BFFE4FDFF01
:08069F008F088B098A0A890B00
:1006A700E4F50CEDD394014003020731E508940FFC
:1006B7005078EDC394015039AB09AA0AA90B12016E
:1006C700C86067C374109508FFE50CC39FE50C501D
:1006D70006248025088004250824B0FF120CDC12AC
:1006E7000C837401250BF50BE4350AF50A050C801C
:1006F700C7AB09AA0AA90B1201C8602EC3741095CB
:1007070008FFE50CC39FE50C500624C025088004AC
:1007170025082470FF120CDC120C837401250BF5DD
:0A0727000BE4350AF50A050C80C743
:0107310022A5
:1009350075900FE590640F60607FE87E03120CC22E
:10094500E590640F605675900FAF90EF24F5601039
:1009550024FE601114601324077012752101800DA7
:10096500752102800875210380037521047590F0B7
:10097500AF90EF2450600C24E0600C24F0600C2450
:1009850070800E7404800674088002740C2521F5AD
:0E09950021E59064F0600580F8E4F521AF21C3
:0109A3002231
:06085300AF0B050BAD091F
:10085900AE07ED7005C374079FFEEEB40800505251
:10086900900870F828287302088802088C020890FA
:1008790002089602089C0208A50208AE0208B2D234
:10088900B08031D2B08002C2B0D2B18029C2B0D218
:10089900B18004C2B0C2B1D2B2C2B322C2B0C2B135
:1008A900D2B2D2B322C2B08002D2B0C2B1C2B2D2E5
:0A08B900B322C2B0C2B1C2B2C2B392
:0108C3002212
:100CAB00C2A47F4B7E00120CC2D2A47F027E000234
:020CBB000CC269
:100B3D00E4FD30A40BEDC394145005120CBD80F2EE
:100B4D00EDC3941440037F0122E4FD20A40BEDC3FB
:100B5D0094145005120CBD80F2EDC3941440037F24
:040B6D0001227F00E2
:010B71002261
:100C0300E4FDC2A40000D2A4000030A4030D8002BE
:0B0C1300E4FD7F057E00120CC2AF055F
:010C1E0022B3
:100C1F00E4FBFAFF120C03EFC43333335480FEEAC4
:0A0C2F00C3134EFA0BBB08ECAF0232
:010C39002298
:080B0500120CAB120B3D7FCC7A
:020B0D00AD0732
:100B0F00E4FBED5401FAEDC313FDEA600FC2A4003C
:100B1F0000D2A47F067E00120CC2800DC2A47F06F5
:0D0B2F007E00120CC2D2A400000BBB08D542
:010B3C002296
:080CE600120B057F44020B0D07
:060D0C00120CAB020B3DCE
:100C6C00D2A3120CBEC2A37F197E00120A2CD2A3EF
:070C7C007F037E00020CC2A1
:100B7200E4FF20A30AEFC3946450040F0080F3EF54
:100B8200C3946440037F0122E4FF30A30AEFC394BD
:100B92006450040F0080F3EFC3946440037F01228A
:020BA2007F00D2
:010BA400222E
:080CEE00D2A3120C6C020B7280
:100ACB00E4FDFBFA20A30AEBC3943250040B008025
:100ADB00F3E4FB7F03FE120CC2E4F930A3010930EF
:100AEB00A30AEBC3946450040B0080F3ED25E0FDE7
:090AFB00E942050ABA08CDAF0575
:010B040022CE
:1008C400E4FFF9F50CF50D120CE6120B057FBE12D0
:1008D4000B0D120C1FA907120C1FEFFE7C00E4295C
:1008E400F50DEC3EF50C54F8FEEEB4F821E50DF4EC
:1008F400FFE50CF4FEEF2401F50DE43EF50CFCAD30
:100904000DE412010EE4FBFA798078BD800FAC0C83
:10091400AD0DE412010EE4FBFA7980783D12000378
:100924008F0B8E0A8D098C08AF0BAE0AAD09AC088B
:0109340022A0
:050D1700C2000209A466
:050D1C00D2000209A451
:100A4A00120C6C120B72EF703BF50D120ACB740884
:100A5A00250DF8A607050DE50DC3940540EDE5083B
:100A6A002509FFE433FE7C00EF250AFFEC3EFEEF8A
:100A7A00250BFFEC3EFEEFB50C0AECB50606850821
:040A8A002D850A327A
:010A8E002245
:050D21007FE4020C3A22
:10073200AB07AA06EB65367003EA6535700302075C
:01074200C6F0
:10074300E4F508F509750A64F50BF50CF50D750E5E
:100753000B750FB8EB64014A702DD3E50D950FE5CA
:100763000C950E501C120853050DE50D7002050C77
:10077300E50BB40803E4F50BAF0A7E00120CC2804C
:10078300D9753500753601EB4A7038E50970047F79
:100793000180027F008F09D3E50D950FE50C950EBF
:1007A300501C120853050DE50D7002050CE50BB442
:1007B3000803E4F50BAF0A7E00120CC280D9E4F5FE
:0307C30035F536D3
:0107C6002210
:080CF600D2A0120A2CC2A022B8
:070CFE00EE4F24FF92A1223A
:070D0500EE4F24FF92A22231
:100244001208C4E4FBFA7920784112000312014732
:100254008E338F34C3E53394005010C3E49534F5E2
:1002640034E49533F53375412D8003754120C3E59E
:100274003494E8E53394034012AE33AF347C037D09
:10028400E81201E1EF2430F5428003754220AE33D9
:10029400AF347C037DE81201E1AA04AB057D647CE4
:1002A40000AF03AE021201E1EF2430F5437D647C1C
:1002B40000AF03AE021201E1AA04AB057D0A7C0083
:1002C400AF03AE021201E1EF2430F54475452E7DF3
:1002D4000A7C00AF03AE021201E1ED2430F546754D
:1002E4004743E4F548120D177529008F2AAE297C7F
:1002F400037DE81201E1AA04AB057D647C00AF0331
:10030400AE021201E1EF2430F52E7D647C00AF03D0
:10031400AE021201E1AA04AB057D0A7C00AF03AE74
:10032400021201E1EF2430F52F7D0A7C00AF03AE09
:10033400021201E1ED2430F530E4F531120D1775A8
:1003440029008F2AAE297C037DE81201E1AA04ABBF
:10035400057D647C00AF03AE021201E1EF2430F5A9
:100364002E7D647C00AF03AE021201E1AA04AB054A
:100374007D0A7C00AF03AE021201E1EF2430F52FB9
:100384007D0A7C00AF03AE021201E1ED2430F530AA
:10039400E4F531120A4AE53275F00A842430F52670
:1003A400E53275F00A84E5F02430F527E4F528E514
:1003B4002D75F00A842430F53CE52D75F00A84E5AA
:1003C400F02430F53DE4F53E120D21754A008F4BC3
:1003D400AE4A7C037DE81201E1AA04AB057D647C8E
:1003E40000AF03AE021201E1EF2430F5227D647CFC
:1003F40000AF03AE021201E1AA04AB057D0A7C0042
:10040400AF03AE021201E1EF2430F5237D0A7C0034
:10041400AF03AE021201E1ED2430F524E4F5252208
:100A8F00120C977A05799E12069AE4F53FF54012FB
:100A9F000D0C120CEE7FF47E01120CF6E4FFFE1229
:100AAF000CFE120D05120C977A0579AB12069A7B84
:0C0ABF00FF7A0579B57D01E4FF02069F77
:100424001209358F3BE53B14B40D00400302059DD2
:1004340090044275F003A4C58325F0C583730204B8
:10044400690204800204970204AE0204C50204DFB8
:1004540002050202052402054602055B020570023C
:10046400058502059A120C977BFF7A0579C0E4FD95
:10047400FF12069F7B007A007941805A120C977B09
:10048400FF7A0579CDE4FDFF12069F7B007A00799F
:100494002E8043120C977BFF7A0579DCE4FDFF1272
:1004A400069F7B007A007937802C120C977BFF7AA9
:1004B4000579E9E4FDFF12069F7B007A00793C8010
:1004C40015120C977BFF7A0579F7E4FDFF12069F5E
:1004D4007B007A0079227D01E48063120C977BFF14
:1004E4007A067908E4FDFF12069F7F017E00120759
:1004F40032120C977BFF7A067916E4FD8040120CC9
:10050400977BFF7A067923E4FDFF12069FE4FFFE42
:10051400120732120C977BFF7A067932E4FD801EB3
:10052400120C977BFF7A067940E4FDFF12069F7F49
:10053400887E13120CF67BFF7A06794DE4FDFF02E8
:10054400069F120C977BFF7A06795CE4FDFF120686
:100554009F7F017E008012120C977BFF7A06796DD3
:10056400E4FDFF12069FE4FFFE020CFE120C977BD3
:10057400FF7A06797DE4FDFF12069F7F017E0080ED
:1005840012120C977BFF7A06798CE4FDFF12069F0A
:0A059400E4FFFE020D05120A8F229B
:100BA500120A8F0540E5407002053FB4F00DE53FA0
:100BB500B45508120244E4F53FF54012042480E3DD
:10000300EC4D6011E8497017ED33EC3304600DE4F7
:10001300FCFFFEFD22E933E8330470F80201B3125A
:10002300017E58046009E4CC24815006285009025B
:1000330001BD2840030201BAC0E0EB4A7044B98015
:1000430006D0E0FB0201A9EF4E701CBD8008EBFF58
:10005300EAFEE9FD80EBE98DF0A4FEE5F00200EC99
:10006300E9CDF9EAFEEBFFEF89F0A4FCE5F0CE89D8
:10007300F0A42EFFE435F0CD89F0A42DFEE435F095
:100083008067EF4E7005BD80D780C3EF8BF0A4ACC3
:10009300F0EE8BF0A42CFCE435F0F8EF8AF0A42CFE
:1000A300E5F038FCE433CB8DF0A42CFCE5F03BF811
:1000B300EE8AF0A42CFCE5F038F8E433CF89F0A401
:1000C3002CFCE5F038CF3400CE89F0A42FFFE5F007
:1000D3003EFEE433C98DF0A42EFEE5F039CD8AF05F
:1000E300A42FFFE5F03EFEE43DFD33D0E0FB5007D7
:1000F3000BBB000F0201BDEC2CFCEF33FFEE33FE14
:06010300ED33FD02019541
:1001090075F020800E75F010800575F0087D007E71
:10011900007F003392D530D503120236EC334010FC
:10012900EF33FFEE33FEED33FDEC33FCD5F0ED227A
:0E013900E5F0247EA2D513CC92E7CDCEFF22B6
:10014700EDD2E7CD33EC3392D524814006E4FFFEB0
:10015700FDFC22FCE4CFCECDCC24E0501174FF800F
:10016700EDC3CC13CCCD13CDCE13CECF13CF0470AC
:07017700F030D5DE02023674
:10017E00E9D2E7C933E833F892D5EDD2E7CD33ECC7
:07018E0033FC5002B2D52240
:10019500EC30E7100FBF000C0EBE00080DBD0004CB
:1001A5000BEB6014A2D5EB13FCED92E7FD2274FF77
:1001B500FCFDFEFF22E480F8A2D574FF13FC7D80D0
:0301C500E480EFE4
:030000000207C72D
:0C07C700787FE4F6D8FD75814B02080E27
:1001C800BB010689828A83E0225002E722BBFE0235
:0901D800E32289828A83E4932268
:1001E100BC000BBE0029EF8DF084FFADF022E4CC02
:1001F100F875F008EF2FFFEE33FEEC33FCEE9DECCB
:10020100984005FCEE9DFE0FD5F0E9E4CEFD22ED10
:10021100F8F5F0EE8420D21CFEADF075F008EF2F5A
:10022100FFED33FD4007985006D5F0F222C398FD4B
:050231000FD5F0EA22E8
:0E023600C3E49FFFE49EFEE49DFDE49CFC22D9
:1007D300020BA5E493A3F8E493A34003F68001F28C
:1007E30008DFF48029E493A3F85407240CC8C33327
:1007F300C4540F4420C8834004F456800146F6DFF6
:10080300E4800B0102040810204080900C54E47E25
:10081300019360BCA3FF543F30E509541FFEE493EA
:10082300A360010ECF54C025E060A840B8E493A3B1
:10083300FAE493A3F8E493A3C8C582C8CAC583CADC
:10084300F0A3C8C582C8CAC583CADFE9DEE780BE94
:010C6B000088
:00000001FF
