:1005F30053656C662D74657374696E670053656C1F
:10060300662D746573740053756363657373212179
:10061300210054656D70657261747572653A00539B
:100623006F696C204D6F6973747572653A004E2F54
:1006330041005761746572204C6576656C3A0041E0
:100643006972204D6F6973747572653A004C6967FE
:10065300687420496E74656E736974793A005368DF
:1006630069656C6420526973696E670053686965D4
:100673006C6420526973656400536869656C642017
:1006830046616C6C696E6700536869656C642046EB
:10069300616C6C65640050756D7020576F726B6987
:1006A3006E670050756D7020576F726B65642035EF
:1006B3007300537072617920576F726B20426567C4
:1006C300696E00537072617920576F726B20537497
:1006D3006F70004C454420576F726B204265676909
:1006E3006E004C454420576F726B2053746F70003B
:100BA30002260000010800010C00012C00012300B3
:100BB30001220001360011113F065B4F666D7D0770
:100BC3007F6F777C395E797100020D0000020F00A0
:010BD3000021
:050CB5000D7F017E002F
:0B0CBA00EF1FAC0670011E4C70F6220C
:100A8000C2A5C2A78B807F017E00120AABD2A77FCE
:100A9000017E00120AABC2A7EBC454F0F5807F01BF
:0B0AA0007E00120AABD2A77F017E008F
:100AAB00D3EF9400EE940040147D6E7C00ED1D702E
:0D0ABB00011CED4C70F7EF1F70E61E80E38C
:010AC800220B
:100BD500C28600E4FEEFC4131313540124FF92846C
:0E0BE500EF25E0FFC28600D286000EBE08E7B4
:010BF30022DF
:100BF400E4FFFEC28600FDEF25E0FFEE33FED28661
:0E0C040000C28600A287E43342070DBD0CE952
:010C120022BF
:100C4A00E4FDFCC286C285120BD57F06DFFED28682
:090C5A0000C28600120BF4D285E1
:010C6300226E
:0A0CC500AB07C2A6120A80C2A722E4
:0A0C7B00AB40AA41A94212052FFF69
:0A0C8500AB07D2A6120A80C2A72214
:100C8F007F28120CC57F0C120CC57F06120CC57F76
:040C9F0001020CC57D
:050CFB007F01020CC5A1
:1006F300E4F534F535120CF5120CDFE4FFFE120CB1
:10070300E7120CEE7FF40E120CCF120C8F7A0679DF
:06071300007BFFE4FDFF86
:080719008F3F8B408A418942A9
:10072100E4F543EDD3940140030207ABE53F940F99
:100731005078EDC394015039AB40AA41A94212054A
:100741002F6067C37410953FFFE543C39FE5435096
:10075100062480253F8004253F24B0FF120CC512DA
:100761000C7B74012542F542E43541F54105438096
:10077100C7AB40AA41A94212052F602EC374109540
:100781003FFFE543C39FE543500624C0253F800456
:10079100253F2470FF120CC5120C7B74012542F514
:0A07A10042E43541F541054380C7ED
:0107AB00222B
:1009AF0075900FE590640F60607FE87E03120CBABC
:1009BF00E590640F605675900FAF90EF24F56010BF
:1009CF0024FE601114601324077012750801800D46
:1009DF00750802800875080380037508047590F088
:1009EF00AF90EF2450600C24E0600C24F0600C24D6
:1009FF0070800E7404800674088002740C2508F54C
:0E0A0F0008E59064F0600580F8E4F508AF0893
:010A1D0022B6
:0608CD00AF420542AD4000
:1008D300AE07ED7005C374079FFEEEB408005052D7
:1008E3009008EAF828287302090202090602090A95
:1008F30002091002091602091F02092802092CD253
:10090300B08031D2B08002C2B0D2B18029C2B0D29D
:10091300B18004C2B0C2B1D2B2C2B322C2B0C2B1BA
:10092300D2B2D2B322C2B08002D2B0C2B1C2B2D26A
:0A093300B322C2B0C2B1C2B2C2B317
:01093D002297
:1007AC00AB07AA06EB65277003EA652670030208FF
:0107BC0040FC
:1007BD00E4F53FF540754164F542F543F544754563
:1007CD000B7546B8EB64014A702DD3E5449546E5AB
:1007DD00439545501C1208CD0544E5447002054370
:1007ED00E542B40803E4F542AF417E00120CBA8035
:1007FD00D9752600752701EB4A7038E54070047FE6
:10080D000180027F008F40D3E5449546E543954531
:10081D00501C1208CD0544E54470020543E542B471
:10082D000803E4F542AF417E00120CBA80D9E4F51D
:03083D0026F52776
:010840002295
:080CCF00D2A0120AABC2A02260
:070CE700EE4F24FF92A12251
:070CEE00EE4F24FF92A22249
:100CA300C2A47F4B7E00120CBAD2A47F027E000244
:020CB3000CBA79
:100B3B00E4FD30A40BEDC394145005120CB580F2F8
:100B4B00EDC3941440037F0122E4FD20A40BEDC3FD
:100B5B0094145005120CB580F2EDC3941440037F2E
:040B6B0001227F00E4
:010B6F002263
:100C1300E4FDC2A40000D2A4000030A4030D8002AE
:0B0C2300E4FD7F057E00120CBAAF0557
:010C2E0022A3
:100C2F00E4FBFAFF120C13EFC43333335480FEEAA4
:0A0C3F00C3134EFA0BBB08ECAF0222
:010C49002288
:080B0300120CA3120B3B7FCC86
:020B0B00AD0734
:100B0D00E4FBED5401FAEDC313FDEA600FC2A4003E
:100B1D0000D2A47F067E00120CBA800DC2A47F06FF
:0D0B2D007E00120CBAD2A400000BBB08D54C
:010B3A002298
:080CD700120B037F44020B0B1A
:060CF500120CA3020B3BF0
:10093E00E4FFF9F543F544120CD7120B037FBE12F8
:10094E000B0B120C2FA907120C2FEFFE7C00E429C3
:10095E00F544EC3EF54354F8FEEEB4F821E544F4CC
:10096E00FFE543F4FEEF2401F544E43EF543FCAD10
:10097E0044E4120475E4FBFA798078BD800FAC4331
:10098E00AD44E4120475E4FBFA7980783D12036AF3
:10099E008F428E418D408C3FAF42AE41AD40AC3F59
:0109AE002226
:100C6400D2A3120CB6C2A37F197E00120AABD2A380
:070C74007F037E00020CBAB1
:100B7000E4FF20A30AEFC3946450040F0080F3EF56
:100B8000C3946440037F0122E4FF30A30AEFC394BF
:100B90006450040F0080F3EFC3946440037F01228C
:020BA0007F00D4
:010BA2002230
:080CDF00D2A3120C64020B7099
:100AC900E4FDFBFA20A30AEBC3943250040B008027
:100AD900F3E4FB7F03FE120CBAE4F930A3010930F9
:100AE900A30AEBC3946450040B0080F3ED25E0FDE9
:090AF900E942050ABA08CDAF0577
:010B020022D0
:060A1E008B3F8A40894174
:100A2400120C64120B70EF704DF54A120AC974452A
:100A3400254AF8A607054AE54AC3940540EDE5456D
:100A44002546FFE433FE7C00EF2547FFEC3EFEEF36
:100A54002548FFEC3EFEEFB5491FECB5061BAB4243
:100A6400AA43A944E545120548AB3FAA40A941E57C
:0B0A74004712054880037F01227F002D
:010A7F002254
:10000300120C8F7A0579F31207141206F37BFF7A29
:1000130006790A02027F0535E5357002053464F07E
:100023007004E534645560030201C912093EE4FB20
:10003300FA7920784112036A1204AE8E248F25C305
:10004300E524648094805010C3E49525F525E49558
:1000530024F52475372D8003753720C3E52594E8EF
:10006300E524648094834012AE24AF257C037DE8AD
:100073001205AFEF2430F5388003753820AE24AF76
:10008300257C037DE81205AFAA04AB057D647C00E3
:10009300AF03AE021205AFEF2430F5397D647C0067
:1000A300AF03AE021205AFAA04AB057D0A7C00AF15
:1000B30003AE021205AFEF2430F53A753B2E7D0AED
:1000C3007C00AF03AE021205AFED2430F53C753D65
:1000D30043E4F53E7FA4120C4A8E0D8F0E7C037D04
:1000E300E812055AAA04AB057D647C00AF03AE0297
:1000F30012055AEF2430F5287D647C00AF03AE026D
:1001030012055AAA04AB057D0A7C00AF03AE0212A6
:10011300055AEF2430F5297D0A7C00AF03AE0212A5
:10012300055AED2430F52AE4F52B7FE4120C4A8EB0
:100133000F8F107C037DE812055AAA04AB057D647A
:100143007C00AF03AE0212055AEF2430F52D7D6417
:100153007C00AF03AE0212055AAA04AB057D0A7CEC
:1001630000AF03AE0212055AEF2430F52E7D0A7C50
:1001730000AF03AE0212055AED2430F52FE4F5303B
:10018300F542754300754422FB7A007923120A1E57
:10019300E52375F00A842430F509E52375F00A8414
:1001A300E5F02430F50AE4F50BE52275F00A842422
:1001B30030F531E52275F00A84E5F02430F532E4B8
:1001C300F533F534F5351209AF8F2CE52C14B40D46
:1001D3000040030200199001E775F003A4C58325CD
:1001E300F0C5837302020E02022502023C0202538F
:1001F30002026A0202840202A70202C90202EE029A
:10020300030302031B020330020348120C8F7BFF1C
:100213007A067915E4FDFF1207197B007A00793716
:10022300805A120C8F7BFF7A067922E4FDFF1207B6
:10023300197BFF7A0679318043120C8F7BFF7A0694
:100243007935E4FDFF1207197B007A00792D802CA4
:10025300120C8F7BFF7A067942E4FDFF1207197BAC
:10026300007A0079318015120C8F7BFF7A06795062
:10027300E4FDFF1207197B007A0079287D01E480F1
:1002830063120C8F7BFF7A067961E4FDFF12071975
:100293007F017E001207AC120C8F7BFF7A06796F09
:1002A300E4FD8040120C8F7BFF7A06797CE4FDFF2E
:1002B300120719E4FFFE1207AC120C8F7BFF7A06BC
:1002C300798BE4FD801E120C8F7BFF7A067999E40B
:1002D300FDFF1207197F887E13120CCF7BFF7A066E
:1002E30079A6E4FDFF120719020019120C8F7BFF98
:1002F3007A0679B5E4FDFF1207197F017E008012AB
:10030300120C8F7BFF7A0679C6E4FDFF120719E40E
:10031300FFFE120CE7020019120C8F7BFF7A06799D
:10032300D6E4FDFF1207197F017E008012120C8FA5
:100333007BFF7A0679E5E4FDFF120719E4FFFE125D
:100343000CEE020019120C8F7BFF7A0579F3E4FDA2
:10035300FF1207191206F37BFF7A06790A7D01E47F
:07036300FF12071902001947
:10036A00EC4D6011E8497017ED33EC3304600DE48D
:10037A00FCFFFEFD22E933E8330470F802051A1285
:10038A0004E558046009E4CC248150062850090287
:10039A000524284003020521C0E0EB4A7044B980D5
:1003AA0006D0E0FB020510EF4E701CBD8008EBFF83
:1003BA00EAFEE9FD80EBE98DF0A4FEE5F0020453C4
:1003CA00E9CDF9EAFEEBFFEF89F0A4FCE5F0CE896E
:1003DA00F0A42EFFE435F0CD89F0A42DFEE435F02B
:1003EA008067EF4E7005BD80D780C3EF8BF0A4AC59
:1003FA00F0EE8BF0A42CFCE435F0F8EF8AF0A42C94
:10040A00E5F038FCE433CB8DF0A42CFCE5F03BF8A6
:10041A00EE8AF0A42CFCE5F038F8E433CF89F0A496
:10042A002CFCE5F038CF3400CE89F0A42FFFE5F09C
:10043A003EFEE433C98DF0A42EFEE5F039CD8AF0F4
:10044A00A42FFFE5F03EFEE43DFD33D0E0FB50076C
:10045A000BBB000F020524EC2CFCEF33FFEE33FE3E
:06046A00ED33FD0204FC6D
:1004700075F020800E75F010800575F0087D007E07
:10048000007F003392D530D5031205E5EC334010E0
:10049000EF33FFEE33FEED33FDEC33FCD5F0ED2210
:0E04A000E5F0247EA2D513CC92E7CDCEFF224C
:1004AE00EDD2E7CD33EC3392D524814006E4FFFE46
:1004BE00FDFC22FCE4CFCECDCC24E0501174FF80A5
:1004CE00EDC3CC13CCCD13CDCE13CECF13CF047042
:0704DE00F030D5DE0205E558
:1004E500E9D2E7C933E833F892D5EDD2E7CD33EC5D
:0704F50033FC5002B2D522D6
:1004FC00EC30E7100FBF000C0EBE00080DBD000461
:10050C000BEB6014A2D5EB13FCED92E7FD2274FF0C
:10051C00FCFDFEFF22E480F8A2D574FF13FC7D8065
:03052C00E480EF79
:03000000020841B2
:0C084100787FE4F6D8FD75814A02088833
:10052F00BB010689828A83E0225002E722BBFE02CA
:09053F00E32289828A83E49322FD
:10054800BB010689828A83F0225002F722BBFE0192
:02055800F3228C
:10055A00BC000BBE0029EF8DF084FFADF022E4CC85
:10056A00F875F008EF2FFFEE33FEEC33FCEE9DEC4E
:10057A00984005FCEE9DFE0FD5F0E9E4CEFD22ED94
:10058A00F8F5F0EE8420D21CFEADF075F008EF2FDE
:10059A00FFED33FD4007985006D5F0F222C398FDCF
:0505AA000FD5F0EA226C
:1005AF00C2D5EC30E709B2D5E4C39DFDE49CFCEE67
:1005BF0030E715B2D5E4C39FFFE49EFE12055AC380
:1005CF00E49DFDE49CFC800312055A30D507C3E47B
:0605DF009FFFE49EFE22D6
:0E05E500C3E49FFFE49EFEE49DFDE49CFC2227
:10084D00020003E493A3F8E493A34003F68001F2BE
:10085D0008DFF48029E493A3F85407240CC8C333AC
:10086D00C4540F4420C8834004F456800146F6DF7B
:10087D00E4800B0102040810204080900BA3E47E5D
:10088D00019360BCA3FF543F30E509541FFEE49370
:10089D00A360010ECF54C025E060A840B8E493A337
:1008AD00FAE493A3F8E493A3C8C582C8CAC583CA62
:1008BD00F0A3C8C582C8CAC583CADFE9DEE780BE1A
:010BD4000020
:00000001FF
