:1005E70053656C662D74657374696E670053656C2B
:1005F700662D746573740053756363657373212186
:10060700210054656D70657261747572653A0053A7
:100617006F696C204D6F6973747572653A004E2F60
:1006270041005761746572204C6576656C3A0041EC
:100637006972204D6F6973747572653A004C69670A
:10064700687420496E74656E736974793A005368EB
:1006570069656C6420526973696E670053686965E0
:100667006C6420526973656400536869656C642023
:1006770046616C6C696E6700536869656C642046F7
:10068700616C6C65640050756D7020576F726B6993
:100697006E670050756D7020576F726B65642035FB
:1006A7007300537072617920576F726B20426567D0
:1006B700696E00537072617920576F726B205374A3
:1006C7006F70004C454420576F726B204265676915
:1006D7006E004C454420576F726B2053746F700047
:100B1F0002260000010800010C00012C0001230037
:100B2F0001220001360011113F065B4F666D7D07F4
:100B3F007F6F777C395E797100020D0000020F0024
:010B4F0000A5
:050C6D000D7F017E0077
:0B0C7200EF1FAC0670011E4C70F62254
:100B5100C2A5C2A78F807F017E00120B64D2A77F3E
:030B6100017E0012
:100B6400D3EF9400EE940040147D6E7C00ED1D7074
:0D0B7400011CED4C70F7EF1F70E61E80E3D2
:010B81002251
:100B8200C2B600E4FEEFC4131313540124FF92B45F
:0E0B9200EF25E0FFC2B600D2B6000EBE08E7A7
:010BA0002232
:100BA100E4FFFEC2B600FDEF25E0FFEE33FED2B654
:0E0BB10000C2B600A2B7E43342070DBD0CE946
:010BBF002213
:100C1600E4FDFCC2B6C2B5120B827F06DFFED2B679
:090C260000C2B600120BA1D2B508
:010C2F0022A2
:080C7D00C2A6120B51C2A7220E
:080C8500D2A6120B51C2A722F6
:100C47007F38120C7D7F0C120C7D7F06120C7D7F86
:040C570001020C7D0D
:050CB1007F01020C7D33
:0C080800120C477A0579E77BFFE4FDFF46
:020814008F3F14
:10081600E4F540EDD394015072E53F940F506CED32
:10082600C3940150331205236061C37410953FFFD2
:10083600E540C39FE54050062480253F8004253FC0
:1008460024B0FF120C7D120523FF120C85740129BA
:10085600F9E43AFA054080CD120523602EC37410E0
:10086600953FFFE540C39FE540500624C0253F80E5
:1008760004253F2470FF120C7D120523FF120C8500
:0B088600740129F9E43AFA054080CD26
:010891002244
:1009740075900FE590640F60607FE87E03120C723F
:10098400E590640F605675900FAF90EF24F56010FA
:1009940024FE601114601324077012750801800D81
:1009A400750802800875080380037508047590F0C3
:1009B400AF90EF2450600C24E0600C24F0600C2411
:1009C40070800E7404800674088002740C2508F587
:0E09D40008E59064F0600580F8E4F508AF08CF
:0109E20022F2
:06089200AF420542AD403B
:10089800AE07ED7005C374079FFEEEB40800505212
:1008A8009008AFF82828730208C70208CB0208CFBF
:1008B8000208D50208DB0208E40208ED0208F1D2BA
:1008C800B08031D2B08002C2B0D2B18029C2B0D2D9
:1008D800B18004C2B0C2B1D2B2C2B322C2B0C2B1F6
:1008E800D2B2D2B322C2B08002D2B0C2B1C2B2D2A6
:0A08F800B322C2B0C2B1C2B2C2B353
:0109020022D2
:1006E700AB07AA06EB65277003EA652670030207C6
:0106F7007B87
:1006F800E4F53FF540754164F542F543F544754529
:100708000B7546B8EB64014A702DD3E5449546E570
:10071800439545501C1208920544E5447002054370
:10072800E542B40803E4F542AF417E00120C728042
:10073800D9752600752701EB4A7038E54070047FAB
:100748000180027F008F40D3E5449546E5439545F7
:10075800501C1208920544E54470020543E542B472
:100768000803E4F542AF417E00120C7280D9E4F52B
:0307780026F5273C
:01077B00225B
:100BC000E4F534F535120CAB120C95E4FFFE120C73
:070BD0009D120CA47FF40E3E
:080BD700D2A0120B64C2A0229F
:070C9D00EE4F24FF92A1229B
:070CA400EE4F24FF92A22293
:100C5B00C2A47F4B7E00120C72D2A47F027E0002D4
:020C6B000C7209
:100AB700E4FD30A40BEDC394145005120C6D80F2C5
:100AC700EDC3941440037F0122E4FD20A40BEDC382
:100AD70094145005120C6D80F2EDC3941440037FFB
:040AE70001227F0069
:010AEB0022E8
:100BDF00E4FDC2A40000D2A4000030A4030D8002E3
:0B0BEF00E4FD7F057E00120C72AF05D4
:010BFA0022D8
:100BFB00E4FBFAFF120BDFEFC43333335480FEEA0E
:0A0C0B00C3134EFA0BBB08ECAF0256
:010C150022BC
:080A7F00120C5B120AB77FCCD8
:020A8700AD07B9
:100A8900E4FBED5401FAEDC313FDEA600FC2A400C3
:100A990000D2A47F067E00120C72800DC2A47F06CC
:0D0AA9007E00120C72D2A400000BBB08D519
:010AB600221D
:080C8D00120A7F7F44020A876E
:060CAB00120C5B020AB707
:10090300E4FFF9F543F544120C8D120A7F7FBE1202
:100913000A87120BFBA907120BFBEFFE7C00E429ED
:10092300F544EC3EF54354F8FEEEB4F821E544F407
:10093300FFE543F4FEEF2401F544E43EF543FCAD4B
:1009430044E4120469E4FBFA798078BD800FAC4378
:10095300AD44E4120469E4FBFA7980783D12035E46
:100963008F428E418D408C3FAF42AE41AD40AC3F94
:010973002261
:100C3000D2A3120C6EC2A37F197E00120B64D2A342
:070C40007F037E00020C722D
:100AEC00E4FF20A30AEFC3946450040F0080F3EFDB
:100AFC00C3946440037F0122E4FF30A30AEFC39444
:100B0C006450040F0080F3EFC3946440037F012210
:020B1C007F0058
:010B1E0022B4
:080C9500D2A3120C30020AEC9C
:100A4500E4FDFBFA20A30AEBC3943250040B0080AB
:100A5500F3E4FB7F03FE120C72E4F930A3010930C5
:100A6500A30AEBC3946450040B0080F3ED25E0FD6D
:090A7500E942050ABA08CDAF05FB
:010A7E002255
:0609E3008B3F8A408941B0
:1009E900120C30120AECEF704DF54A120A457445A3
:1009F900254AF8A607054AE54AC3940540EDE545A9
:100A09002546FFE433FE7C00EF2547FFEC3EFEEF71
:100A19002548FFEC3EFEEFB5491FECB5061BAB427E
:100A2900AA43A944E54512053CAB3FAA40A941E5C3
:0B0A39004712053C80037F01227F0074
:010A4400228F
:10000300120808120BC07A0579F4E4FDFF120814F4
:100013007A0579FE0202791209748F2C0535E535CC
:100023007002053464F07004E53464556003020122
:10003300CF120903E4FBFA7920784112035E12041C
:10004300A28E248F25C3E524648094805010C3E4DA
:100053009525F525E49524F52475372D800375370B
:1000630020C3E52594E8E524648094834012AE24FC
:10007300AF257C037DE81205A3EF2430F538800318
:10008300753820AE24AF257C037DE81205A3AA04AE
:10009300AB057D647C00AF03AE021205A3EF2430F1
:1000A300F5397D647C00AF03AE021205A3AA04AB4D
:1000B300057D0A7C00AF03AE021205A3EF2430F5E1
:1000C3003A753B2E7D0A7C00AF03AE021205A3ED09
:1000D3002430F53C753D43E4F53E7FA4120C168EA7
:1000E3000D8F0E7C037DE812054EAA04AB057D64DB
:1000F3007C00AF03AE0212054EEF2430F5287D6479
:100103007C00AF03AE0212054EAA04AB057D0A7C48
:1001130000AF03AE0212054EEF2430F5297D0A7CB1
:1001230000AF03AE0212054EED2430F52AE4F52BA1
:100133007FE4120C168E0F8F107C037DE812054EA0
:10014300AA04AB057D647C00AF03AE0212054EEF3B
:100153002430F52D7D647C00AF03AE0212054EAA58
:1001630004AB057D0A7C00AF03AE0212054EEF24FB
:1001730030F52E7D0A7C00AF03AE0212054EED244E
:1001830030F52FE4F530F542754300754422FB7AD0
:100193000079231209E3E52375F00A842430F50975
:1001A300E52375F00A84E5F02430F50AE4F50BE560
:1001B3002275F00A842430F531E52275F00A84E5CE
:1001C300F02430F532E4F533F534F535E52C14B489
:1001D3000D00400302001A9001E875F003A4C583E3
:1001E30025F0C5837302020F0202210202360202C6
:1001F3004D02026402027E0202A10202C30202E66F
:100203000202FB020313020328020340120C477A83
:1002130006790912080F7B007A0079378058120C8F
:10022300477BFF7A067916E4FDFF1208147A0679F4
:10023300258043120C477BFF7A067929E4FDFF12E0
:1002430008147B007A00792D802C120C477BFF7AEF
:10025300067936E4FDFF1208147B007A00793180B9
:1002630015120C477BFF7A067944E4FDFF1208144C
:100273007B007A0079287D01E48061120C477BFFC3
:100283007A067955E4FDFF1208147F017E001206F9
:10029300E7120C477BFF7A067963E4FD803E120C7C
:1002A300477BFF7A067970E4FDFF120814E4FFFE32
:1002B3001206E7120C477BFF7A06797FE4FD801C68
:1002C300120C477BFF7A06798DE4FDFF1208147F39
:1002D300887E13120BD77A06799AE4FDFF1208146D
:1002E30002001A120C477BFF7A0679A9E4FDFF127C
:1002F30008147F017E008012120C477BFF7A067977
:10030300BAE4FDFF120814E4FFFE120C9D02001A6A
:10031300120C477BFF7A0679CAE4FDFF1208147FAB
:10032300017E008012120C477BFF7A0679D9E4FD27
:10033300FF120814E4FFFE120CA402001A120808AC
:10034300120BC07A0579F4E4FDFF1208147A0579DB
:0B035300FE7D01E4FF12081402001AF6
:10035E00EC4D6011E8497017ED33EC3304600DE499
:10036E00FCFFFEFD22E933E8330470F802050E129D
:10037E0004D958046009E4CC24815006285009029F
:10038E000518284003020515C0E0EB4A7044B980F9
:10039E0006D0E0FB020504EF4E701CBD8008EBFF9B
:1003AE00EAFEE9FD80EBE98DF0A4FEE5F0020447DC
:1003BE00E9CDF9EAFEEBFFEF89F0A4FCE5F0CE897A
:1003CE00F0A42EFFE435F0CD89F0A42DFEE435F037
:1003DE008067EF4E7005BD80D780C3EF8BF0A4AC65
:1003EE00F0EE8BF0A42CFCE435F0F8EF8AF0A42CA0
:1003FE00E5F038FCE433CB8DF0A42CFCE5F03BF8B3
:10040E00EE8AF0A42CFCE5F038F8E433CF89F0A4A2
:10041E002CFCE5F038CF3400CE89F0A42FFFE5F0A8
:10042E003EFEE433C98DF0A42EFEE5F039CD8AF000
:10043E00A42FFFE5F03EFEE43DFD33D0E0FB500778
:10044E000BBB000F020518EC2CFCEF33FFEE33FE56
:06045E00ED33FD0204F085
:1004640075F020800E75F010800575F0087D007E13
:10047400007F003392D530D5031205D9EC334010F8
:10048400EF33FFEE33FEED33FDEC33FCD5F0ED221C
:0E049400E5F0247EA2D513CC92E7CDCEFF2258
:1004A200EDD2E7CD33EC3392D524814006E4FFFE52
:1004B200FDFC22FCE4CFCECDCC24E0501174FF80B1
:1004C200EDC3CC13CCCD13CDCE13CECF13CF04704E
:0704D200F030D5DE0205D970
:1004D900E9D2E7C933E833F892D5EDD2E7CD33EC69
:0704E90033FC5002B2D522E2
:1004F000EC30E7100FBF000C0EBE00080DBD00046D
:100500000BEB6014A2D5EB13FCED92E7FD2274FF18
:10051000FCFDFEFF22E480F8A2D574FF13FC7D8071
:03052000E480EF85
:0300000002077C78
:0C077C00787FE4F6D8FD75814A0207C3BF
:10052300BB010689828A83E0225002E722BBFE02D6
:09053300E32289828A83E4932209
:10053C00BB010689828A83F0225002F722BBFE019E
:02054C00F32298
:10054E00BC000BBE0029EF8DF084FFADF022E4CC91
:10055E00F875F008EF2FFFEE33FEEC33FCEE9DEC5A
:10056E00984005FCEE9DFE0FD5F0E9E4CEFD22EDA0
:10057E00F8F5F0EE8420D21CFEADF075F008EF2FEA
:10058E00FFED33FD4007985006D5F0F222C398FDDB
:05059E000FD5F0EA2278
:1005A300C2D5EC30E709B2D5E4C39DFDE49CFCEE73
:1005B30030E715B2D5E4C39FFFE49EFE12054EC398
:1005C300E49DFDE49CFC800312054E30D507C3E493
:0605D3009FFFE49EFE22E2
:0E05D900C3E49FFFE49EFEE49DFDE49CFC2233
:10078800020003E493A3F8E493A34003F68001F284
:1007980008DFF48029E493A3F85407240CC8C33372
:1007A800C4540F4420C8834004F456800146F6DF41
:1007B800E4800B0102040810204080900B1FE47EA7
:1007C800019360BCA3FF543F30E509541FFEE49336
:1007D800A360010ECF54C025E060A840B8E493A3FD
:1007E800FAE493A3F8E493A3C8C582C8CAC583CA28
:1007F800F0A3C8C582C8CAC583CADFE9DEE780BEE0
:010B500000A4
:00000001FF
