:1005CF0053656C662D74657374696E670053656C43
:1005DF00662D74657374005375636365737321219E
:1005EF00210054656D70657261747572653A0053C0
:1005FF006F696C204D6F6973747572653A0057613E
:10060F00746572204C6576656C3A00416972204DB5
:10061F006F6973747572653A004C69676874204925
:10062F006E74656E736974793A00536869656C64AA
:10063F0020526973696E6700536869656C64205254
:10064F006973656400536869656C642046616C6CFE
:10065F00696E6700536869656C642046616C6C65F0
:10066F00640050756D7020576F726B696E67005024
:10067F00756D7020576F726B656420357300537002
:10068F0072617920576F726B20426567696E0053F4
:10069F007072617920576F726B2053746F70004CBA
:1006AF00454420576F726B20426567696E004C4559
:1006BF004420576F726B2053746F70004155544F25
:1006CF0020576F726B20426567696E004155544F1A
:0B06DF0020576F726B2053746F700087
:100C620001380001310001510002520000023B0034
:100C720000014100025400000121000232010E0273
:0B0C82004F008002290000022D001727
:0C0DA700120DB3D285120DB3C285D286A6
:030DB3000000221B
:050D97000D7F017E004C
:0B0D9C00EF1FAC0670011E4C70F62229
:100AB900C2A5C2A78B807F017E00120AE4D2A77F5C
:100AC900017E00120AE4C2A7EBC454F0F5807F014D
:0B0AD9007E00120AE4D2A77F017E001D
:100AE400D3EF9400EE940040147D6E7C00ED1D70F5
:0D0AF400011CED4C70F7EF1F70E61E80E353
:010B010022D1
:100CB700C2B600E4FEEFC4131313540124FF92B429
:0E0CC700EF25E0FFC2B600D2B6000EBE08E771
:010CD50022FC
:100CD600E4FFFEC2B600FDEF25E0FFEE33FED2B61E
:0E0CE60000C2B600A2B7E43342070DBD0CE910
:010CF40022DD
:100D2C00E4FDFCC2B6C2B5120CB77F06DFFED2B62C
:090D3C0000C2B600120CD6D2B5BB
:010D4500228B
:100A5C00E4FFFEC284C285D286120DA7D285120D88
:100A6C00B3C285A2009286120DA7FDD285120DB3DA
:100A7C00C285120DB3EF25E0FFA286E4334FFF0DC4
:100A8C00BD08E8E4FDA286E433FCA805088002C397
:100A9C0033D8FC4206D285120DB3C285120DB30DAC
:0C0AAC00BD08E2D284EFB50601227F00F5
:010AB800221B
:0A0DB600AB07C2A6120AB9C2A722B9
:0A0D5D00AB09AA0AA90B1201C8FF96
:0A0D6700AB07D2A6120AB9C2A722F8
:100D71007F28120DB67F0C120DB67F06120DB67FBD
:040D810001020DB6A8
:050DEC007F01020DB6BD
:0506EA007BFFE4FDFFB1
:0806EF008F088B098A0A890BB0
:1006F700E4F50CEDD394014003020781E508940F5C
:100707005078EDC394015039AB09AA0AA90B12011D
:10071700C86067C374109508FFE50CC39FE50C50CC
:1007270006248025088004250824B0FF120DB61280
:100737000D5D7401250BF50BE4350AF50A050C80F0
:10074700C7AB09AA0AA90B1201C8602EC37410957A
:1007570008FFE50CC39FE50C500624C0250880045C
:1007670025082470FF120DB6120D5D7401250BF5D7
:0A0777000BE4350AF50A050C80C7F3
:010781002255
:1009850075900FE590640F60607FE87E03120D9C03
:10099500E590640F605675900FAF90EF24F56010E9
:1009A50024FE601114601324077012752101800D57
:1009B500752102800875210380037521047590F067
:1009C500AF90EF2450600C24E0600C24F0600C2400
:1009D50070800E7404800674088002740C2521F55D
:0E09E50021E59064F0600580F8E4F521AF2173
:0109F30022E1
:0608A300AF0B050BAD09CF
:1008A900AE07ED7005C374079FFEEEB40800505201
:1008B9009008C0F82828730208D80208DC0208E06A
:1008C9000208E60208EC0208F50208FE020902D253
:1008D900B08031D2B08002C2B0D2B18029C2B0D2C8
:1008E900B18004C2B0C2B1D2B2C2B322C2B0C2B1E5
:1008F900D2B2D2B322C2B08002D2B0C2B1C2B2D295
:0A090900B322C2B0C2B1C2B2C2B341
:0109130022C1
:100D8500C2A47F4B7E00120D9CD2A47F027E00027E
:020D95000D9CB3
:100BFA00E4FD30A40BEDC394145005120D9780F256
:100C0A00EDC3941440037F0122E4FD20A40BEDC33D
:100C1A0094145005120D9780F2EDC3941440037F8B
:040C2A0001227F0024
:010C2E0022A3
:100CF500E4FDC2A40000D2A4000030A4030D8002CC
:0B0D0500E4FD7F057E00120D9CAF0591
:010D100022C0
:100D1100E4FBFAFF120CF5EFC43333335480FEEADF
:0A0D2100C3134EFA0BBB08ECAF023F
:010D2B0022A5
:080BC200120D85120BFA7FCC25
:020BCA00AD0775
:100BCC00E4FBED5401FAEDC313FDEA600FC2A4007F
:100BDC0000D2A47F067E00120D9C800DC2A47F065D
:0D0BEC007E00120D9CD2A400000BBB08D5AA
:010BF90022D9
:080DC000120BC27F44020BCAB2
:060DE600120D85020BFA5C
:100D4600D2A3120D98C2A37F197E00120AE4D2A381
:070D56007F037E00020D9CEB
:100C2F00E4FF20A30AEFC3946450040F0080F3EF96
:100C3F00C3946440037F0122E4FF30A30AEFC394FF
:100C4F006450040F0080F3EFC3946440037F0122CC
:020C5F007F0014
:010C61002270
:080DC800D2A3120D46020C2F0C
:100B8800E4FDFBFA20A30AEBC3943250040B008067
:100B9800F3E4FB7F03FE120D9CE4F930A301093056
:100BA800A30AEBC3946450040B0080F3ED25E0FD29
:090BB800E942050ABA08CDAF05B7
:010BC1002211
:10091400E4FFF9F50CF50D120DC0120BC27FBE12E7
:100924000BCA120D11A907120D11EFFE7C00E42968
:10093400F50DEC3EF50C54F8FEEEB4F821E50DF49B
:10094400FFE50CF4FEEF2401F50DE43EF50CFCADDF
:100954000DE412010EE4FBFA798078BD800FAC0C33
:10096400AD0DE412010EE4FBFA7980783D12000328
:100974008F0B8E0A8D098C08AF0BAE0AAD09AC083B
:010984002250
:050DF100C200020A5CD3
:050DF600D200020A5CBE
:100B0200120D46120C2FEF703BF50D120B88740874
:100B1200250DF8A607050DE50DC3940540EDE50882
:100B22002509FFE433FE7C00EF250AFFEC3EFEEFD1
:100B3200250BFFEC3EFEEFB50C0AECB50606850868
:040B420031850A38B7
:010B4600228C
:050DFB007FE4020D2C55
:10078200AB07AA06EB653C7003EA653B70030208FF
:010792001650
:10079300E4F508F509750A01F50BF50CF50D750E71
:1007A3001D750F4CEB64014A702DD3E50D950FE5D4
:1007B3000C950E501C1208A3050DE50D7002050CD7
:1007C300E50BB40803E4F50BAF0A7E00120AE480DC
:1007D300D9753B00753C01EB4A7038E50970047F1D
:1007E3000180027F008F09D3E50D950FE50C950E6F
:1007F300501C1208A3050DE50D7002050CE50BB4A2
:100803000803E4F50BAF0A7E00120AE480D9E4F58D
:030813003BF53C76
:0108160022BF
:080DD000D2A0120AE4C2A02225
:070DD800EE4F24FF92A1225F
:070DDF00EE4F24FF92A22257
:10024400120914E4FBFA79207841120003120147E1
:100254008E398F3AC3E53994005010C3E4953AF5CA
:100264003AE49539F53975472D8003754720C3E580
:100274003A94E8E53994034012AE39AF3A7C037DF1
:10028400E81201E1EF2430F5488003754820AE39C7
:10029400AF3A7C037DE81201E1AA04AB057D647CDE
:1002A40000AF03AE021201E1EF2430F5497D647C16
:1002B40000AF03AE021201E1AA04AB057D0A7C0083
:1002C400AF03AE021201E1EF2430F54A754B2E7DE7
:1002D4000A7C00AF03AE021201E1ED2430F54C7547
:1002E4004D43E4F54E120DF1752B008F2CAE2B7C93
:1002F400037DE81201E1AA04AB057D647C00AF0331
:10030400AE021201E1EF2430F5347D647C00AF03CA
:10031400AE021201E1AA04AB057D0A7C00AF03AE74
:10032400021201E1EF2430F5357D0A7C00AF03AE03
:10033400021201E1ED2430F536E4F537120DF675BD
:100344002F008F30AE2F7C037DE81201E1AA04ABAD
:10035400057D647C00AF03AE021201E1EF2430F5A9
:100364003D7D647C00AF03AE021201E1AA04AB053B
:100374007D0A7C00AF03AE021201E1EF2430F53EAA
:100384007D0A7C00AF03AE021201E1ED2430F53F9B
:10039400E4F540120B02E53875F00A842430F526A2
:1003A400E53875F00A84E5F02430F527E4F528E50E
:1003B4003175F00A842430F542E53175F00A84E59C
:1003C400F02430F543E4F544120DFB7552008F53CD
:1003D400AE527C037DE81201E1AA04AB057D647C86
:1003E40000AF03AE021201E1EF2430F5227D647CFC
:1003F40000AF03AE021201E1AA04AB057D0A7C0042
:10040400AF03AE021201E1EF2430F5237D0A7C0034
:10041400AF03AE021201E1ED2430F524E4F5252208
:100B4700120D717A0579CF1206EAE4F545F54612DA
:100B57000DE6120DC87FF47E01120DD0E4FFFE12E0
:100B67000DD8120DDFE4F554F555120D717A05799C
:100B7700DC1206EA7BFF7A0579E67D01E4FF0206CF
:010B8700EF7E
:100424001209858F41E54114B40F0040030205CE43
:1004340090044275F003A4C58325F0C583730204B8
:100444006F02048602049D0204B40204CB0204E594
:1004540002050802052A02054C020561020576021E
:10046400058B0205A00205B60205CB120D717BFFB8
:100474007A0579F1E4FDFF1206EF7B007A007947F3
:10048400805A120D717BFF7A0579FEE4FDFF120696
:10049400EF7B007A0079348043120D717BFF7A067A
:1004A400790DE4FDFF1206EF7B007A00793D802C84
:1004B400120D717BFF7A06791AE4FDFF1206EF7BB9
:1004C400007A0079428015120D717BFF7A06792833
:1004D400E4FDFF1206EF7B007A0079227D01E480BF
:1004E40063120D717BFF7A067939E4FDFF1206EF82
:1004F4007F017E00120782120D717BFF7A06794715
:10050400E4FD8040120D717BFF7A067954E4FDFF0F
:100514001206EFE4FFFE120782120D717BFF7A06CA
:100524007963E4FD801E120D717BFF7A067971E414
:10053400FDFF1206EF7F887E13120DD07BFF7A0633
:10054400797EE4FDFF0206EF120D717BFF7A0679D6
:100554008DE4FDFF1206EF7F017E008012120D7103
:100564007BFF7A06799EE4FDFF1206EFE4FFFE02AC
:100574000DD8120D717BFF7A0679AEE4FDFF1206E9
:10058400EF7F017E008012120D717BFF7A0679BD28
:10059400E4FDFF1206EFE4FFFE020DDF120D717B96
:1005A400FF7A0679CBE4FDFF1206EF75540075550A
:1005B4000122120D717BFF7A0679DBE4FDFF12063E
:0B05C400EFE4F554F55522120B47221E
:1009F400D3E53A9533E539953240077F017E0012FD
:100A04000782C3E53A9533E53995325006E4FFFE93
:100A1400120782D3E5539550E552954F40077F0165
:100A24007E00120DDFC3E5539550E552954F5006F5
:100A3400E4FFFE120DDFC3E531952EE4952D50073A
:100A44007F017E00120DD8D3E531952EE4952D401B
:080A540006E4FFFE120DD8229A
:100C8E00120B470546E54670020545B4F00DE545E5
:100C9E00B45508120244E4F545F546120424E55510
:090CAE00455460DF1209F480DAFC
:10000300EC4D6011E8497017ED33EC3304600DE4F7
:10001300FCFFFEFD22E933E8330470F80201B3125A
:10002300017E58046009E4CC24815006285009025B
:1000330001BD2840030201BAC0E0EB4A7044B98015
:1000430006D0E0FB0201A9EF4E701CBD8008EBFF58
:10005300EAFEE9FD80EBE98DF0A4FEE5F00200EC99
:10006300E9CDF9EAFEEBFFEF89F0A4FCE5F0CE89D8
:10007300F0A42EFFE435F0CD89F0A42DFEE435F095
:100083008067EF4E7005BD80D780C3EF8BF0A4ACC3
:10009300F0EE8BF0A42CFCE435F0F8EF8AF0A42CFE
:1000A300E5F038FCE433CB8DF0A42CFCE5F03BF811
:1000B300EE8AF0A42CFCE5F038F8E433CF89F0A401
:1000C3002CFCE5F038CF3400CE89F0A42FFFE5F007
:1000D3003EFEE433C98DF0A42EFEE5F039CD8AF05F
:1000E300A42FFFE5F03EFEE43DFD33D0E0FB5007D7
:1000F3000BBB000F0201BDEC2CFCEF33FFEE33FE14
:06010300ED33FD02019541
:1001090075F020800E75F010800575F0087D007E71
:10011900007F003392D530D503120236EC334010FC
:10012900EF33FFEE33FEED33FDEC33FCD5F0ED227A
:0E013900E5F0247EA2D513CC92E7CDCEFF22B6
:10014700EDD2E7CD33EC3392D524814006E4FFFEB0
:10015700FDFC22FCE4CFCECDCC24E0501174FF800F
:10016700EDC3CC13CCCD13CDCE13CECF13CF0470AC
:07017700F030D5DE02023674
:10017E00E9D2E7C933E833F892D5EDD2E7CD33ECC7
:07018E0033FC5002B2D52240
:10019500EC30E7100FBF000C0EBE00080DBD0004CB
:1001A5000BEB6014A2D5EB13FCED92E7FD2274FF77
:1001B500FCFDFEFF22E480F8A2D574FF13FC7D80D0
:0301C500E480EFE4
:03000000020817DC
:0C081700787FE4F6D8FD75815502085E7C
:1001C800BB010689828A83E0225002E722BBFE0235
:0901D800E32289828A83E4932268
:1001E100BC000BBE0029EF8DF084FFADF022E4CC02
:1001F100F875F008EF2FFFEE33FEEC33FCEE9DECCB
:10020100984005FCEE9DFE0FD5F0E9E4CEFD22ED10
:10021100F8F5F0EE8420D21CFEADF075F008EF2F5A
:10022100FFED33FD4007985006D5F0F222C398FD4B
:050231000FD5F0EA22E8
:0E023600C3E49FFFE49EFEE49DFDE49CFC22D9
:10082300020C8EE493A3F8E493A34003F68001F251
:1008330008DFF48029E493A3F85407240CC8C333D6
:10084300C4540F4420C8834004F456800146F6DFA5
:10085300E4800B0102040810204080900C62E47EC7
:10086300019360BCA3FF543F30E509541FFEE4939A
:10087300A360010ECF54C025E060A840B8E493A361
:10088300FAE493A3F8E493A3C8C582C8CAC583CA8C
:10089300F0A3C8C582C8CAC583CADFE9DEE780BE44
:010C8D000066
:00000001FF
