:0300000002002ECD
:0C002E00787FE4F6D8FD7581290200758A
:100159007F507EC31201797F507EC31201797F508F
:100169007EC31201797F507EC31201797F507EC30D
:0A017900EF1F70011E144E70F722F4
:1001A300C2017F02120003120159D2017F02120021
:0601B3000312015980EA6D
:0801B90002130000020800001F
:03002B000200BA16
:1000BA00C0E0C0F0C083C082C0D075D000C000C00C
:0D00CA0001C002C003C004C005C006C0078D
:1000D700C2CF0509E50970020508C39514E508951F
:1000E70013400D750800750900AA11A91212002402
:1000F700D007D006D005D004D003D002D001D0005D
:0B010700D0D0D082D083D0F0D0E03206
:100183008E138F148B108A118912E4F5C9F5C87583
:10019300CA6675CBFCD2AFD2ADD2CAD2BDC2CF2212
:0801C800F1F2F4F8F8F4F2F191
:0601C100C100021E000057
:1001120043900F200013051FE51FAE1E7002051E3F
:100122001424C8F58274018014300018051FE51FDD
:10013200AE1E7002051E1424CCF58274013EF583B6
:10014200E4935290C3E51F9404E51E6480948040BA
:0701520005E4F51EF51F2274
:10000300EFC3940250047F028008EFD3940A4002A6
:100013007F0AA20192007E007BFF7A01791202011E
:010023008359
:10003A000201A3E493A3F8E493A34003F68001F238
:10004A0008DFF48029E493A3F85407240CC8C333C7
:10005A00C4540F4420C8834004F456800146F6DF96
:10006A00E4800B01020408102040809001B9E47E6C
:10007A00019360BCA3FF543F30E509541FFEE4938B
:10008A00A360010ECF54C025E060A840B8E493A352
:10009A00FAE493A3F8E493A3C8C582C8CAC583CA7D
:1000AA00F0A3C8C582C8CAC583CADFE9DEE780BE35
:0101C7000037
:060024008A838982E47367
:00000001FF
