:1007030048454C4C4F20574F524C4400C6D5D6D089
:10071300BFC6BCBC000000000000000000000000D9
:1007230000000000000000000000000000000000C6
:1007330000000000000000000000000000000000B6
:100743000000000000808080808080808080808026
:100753008080808080000000000000000000000016
:100763000000000000000000000000000000000086
:100773000000000000000000000000000000000076
:100783000000000000000000000000000000000066
:100793000000000000000000000000000000000056
:1007A300000000FEFFFFFBF9FBFFFFFFFFFFFFFF62
:1007B300FFFFFFFFFFFFFEFE000000000000000040
:1007C3000000000000000000000000000000000026
:1007D3000000000000000000000000000000000016
:1007E3000000000000000000000000000000FCFC0E
:1007F300E0E0C08080000000000000008080E0E0B6
:10080300F0F8F8FFFFFFFFFFFFFF8787868484046C
:1008130004040404000000000000000000000000C5
:1008230000000000000000000000000000000000C5
:1008330000000000000000000000000000000000B5
:1008430000000000000000000000000000000F0F87
:100853003F3F7FFFFFFCFCFCFCFEFEFFFFFFFFFFB3
:10086300FFFFFFFFFFFFFF7F3F3F01010303030084
:100873000000000000000000000000000000000075
:100883000000000000000000000000000000000065
:100893000000000000000000000000000000000055
:1008A3000000000000000000000000000000000045
:1008B30000000000010103FFFF7F7F1F0F070F1FD1
:1008C300FFFFFF0101000000000000000000000026
:1008D3000000000000000000000000000000000015
:1008E3000000000000000000000000000000000005
:1008F30000000000000000000000000000000000F5
:1009030000000000000000000000000000000000E4
:1009130000000000000000030303030000000000C8
:1009230003030303020000000000000000000000B6
:1009330000000000000000000000000000000000B4
:1009430000000000000000000000000000000000A4
:0509530000000000009F
:100B9600120D0B7F2C7E01120E2B120E037B48E4E6
:100BA600FDFF120CA37B65E4FD7F08120CA37B6C92
:100BB600E4FD7F10120CA37B6CE4FD7F18120CA3DE
:100BC6007B6FE4FD7F20120CA3E4750D39750C30A4
:100BD600F50BF50A750E05F50FFD7F30120C1D7528
:100BE6000BFF750C07750D037B0C7D01E4FF120DE1
:100BF600537BFF7A07790F7D02E4FF120AC77FD085
:100C06007E07120E2B7BFF7A077918120DD27FD042
:070C16007E07120E2B808304
:1000030000000000000000000000000000000000ED
:10001300000000000000F8330000000000000000B2
:10002300000010000C00020010000C000200000091
:1000330000004004C03F78044004C03F780400003F
:100043000000701888208820FCFF0821301E000063
:10005300F0000831F00C8003601E1821001E000020
:10006300001EF0210823882C70190027002100109E
:10007300000012000E00000000000000000000005D
:10008300000000000000E0071818042002400000F0
:100093000000024004201818E007000000000000E0
:1000A300400240028001F00F800140024002000044
:1000B3000000000100010001E00F00010001000148
:1000C300000000900070000000000000000000002D
:1000D3000000000100010001000100010001000017
:1000E30000000030003000000000000000000000AD
:1000F3000000006000180007C00038000400000082
:100103000000E00F1010082008201010E00F00007E
:100113000000000010201020F83F00200020000005
:10012300000070300828082408220821F03000005D
:10013300000030180820082108218822701C0000C4
:1001430000000006800540243024F83F00240024EA
:100153000000F8198820882088200811080E000064
:100163000000E00F1011882088209020001F00005D
:10017300000018000800083E88016800180000000D
:100183000000701C8822082108218822701C0000AE
:100193000000F0010812082208221011E00F0000ED
:1001A300000000000000C030C0300000000000006C
:1001B30000000000000080E00000000000000000DC
:1001C30000000001800240042008101008200000F5
:1001D3000000400240024002400240024002000090
:1001E30000000820101020084004800200010000D5
:1001F30000007000480008300837880070000000D5
:10020300C0073018C8272828E82F1028E017000057
:100213000020003CC0233802E00200270038002001
:100223000820F83F8820882088207011000E0000E5
:10023300C0073018082008200820081038080000DC
:100243000820F83F0820082008201010E00F0000C5
:100253000820F83F88208820E82308201018000091
:100263000820F83F88208800E803080010000000F9
:10027300C0073018082008200822381E000200009A
:100283000820F83F0821000100010821F83F082059
:10029300000008200820F83F082008200000000084
:1002A30000C0008008800880F87F08000800000074
:1002B3000820F83F8820C0012826183808200000AD
:1002C3000820F83F08200020002000200030000014
:1002D3000820F83FF801003EF801F83F082000002D
:1002E3000820F83F3020C00000070818F83F080036
:1002F300E00F10100820082008201010E00F000065
:100303000820F83F0821080108010801F000000057
:10031300E00F10100828082808301050E04F0000A4
:100323000820F83F882088008803880C703000205C
:10033300000070388820082108210822381C00009A
:10034300180008000820F83F0820080018000000E3
:100353000800F81F0820002000200820F81F0800CC
:100363000800780088070038000EC801380008002C
:100373000800F803003EF801003EF80308000000FF
:1003830008201830682C80038003682C183008205C
:1003930008003800C820003FC820380008000000CB
:1003A3001020083808260821C82038200818000023
:1003B300000000000000FE7F0240024002400000F7
:1003C300000004003800C0010006003800C000002F
:1003D3000000024002400240FE7F000000000000D7
:1003E30000000000040002000200040000000000FE
:1003F30000800080008000800080008000800080FA
:1004030000000200020004000000000000000000E1
:1004130000000019802480248012003F0020000087
:100423001000F03F0011802080200011000E00001A
:100433000000000E001180208020802000110000A9
:100443000000001F8020802080209010F03F0020BB
:100453000000001F802480248024802400170000D3
:10046300000080208020E03F9020902020000000AA
:100473000000006B809480948094809380600000DF
:100483001020F03F0021800080008020003F0020EA
:10049300000080209820983F0020002000000000EA
:1004A300000000C0008080809880987F00000000DA
:1004B3001020F03F002400068029803080200000B7
:1004C300000010201020F83F002000200000000052
:1004D3008020803F80208000803F80208000003F7C
:1004E3008020803F0021800080008020003F00208A
:1004F3000000001F8020802080208020001F00003B
:10050300808080FF0091802080200011000E000079
:100513000000000E001180208020009180FF0080E9
:1005230080208020803F0021802080008001000007
:10053300000000338024802480248024801900005C
:10054300000080008000E01F802080200010000059
:100553008000801F0020002000208010803F0020AA
:1005630080008003800C0030800C8003800000003A
:100573008001800E0030800C8007003880068001E7
:10058300000080208031800E002E8031802000000A
:1005930080008081808600780018800680018000BA
:1005A300000080218030802C802280218030000058
:1005B30000000000000000000001FC3E0240024079
:1005C3000000000000000000FFFF0000000000002A
:1005D30002400240FC3E0001000000000000000059
:1005E30000000200010002000200040002000000FB
:1005F300C6D540445464457E4444447E45645444D3
:100603004000000000FF49494949494949FF0000AA
:100613000000D6D00000F010101010FF10101010C2
:10062300F000000000000F04040404FF04040404A9
:100633000F000000BFC62424A4FEA3220022CC0086
:1006430000FF00000000080601FF00010404040489
:1006530004FF02020200BCBC101010FF10900888B7
:100663008888FF88888808000444827F018080404E
:10067300432C102846818000D3D004040484E43C36
:100683002724242424E40404040004020100FF09B1
:1006930009090949897F00000000CFDE00FE225AC4
:1006A3008600FE9292929292FE00000000FF0408E0
:1006B3000700FF4020030C1422414000B9AB008027
:1006C3004020180680000718204080000000010029
:1006D3002070282621202024386000010100CBBE91
:1006E300001012929292929292121202FE00000055
:1006F3000000003F101010103F0040807F000000FA
:100E4900E4FEEF30E704D2858002C285EF25E0FF9A
:080E5900C286D2860EBE08EA33
:010E6100226E
:080E7800120E80E5132410FFA7
:0A0E8000C283C284120E49D28322FD
:0C0E6200F58375F002EC120ABBE493FF6C
:0A0E6E00C283D284120E49D28322FF
:100D0B00D2827F0A7E00120E2BC2827F0A7E0012D5
:100D1B000E2BD2827F0A7E00120E2B7FE2120E80E8
:100D2B007FC8120E807FA0120E807F2F120E807F45
:100D3B0026120E807F81120E807F10120E807FAFE5
:080D4B00120E807F40020E80B1
:100E0300E4FD7F40120E80ED24B0FF120E807F10B0
:100E1300120E80E4FF120E80E4FCE4FF120E6E0C4F
:070E2300BC60F70DBD09DB07
:010E2A0022A5
:020CA3008B12B2
:100CA500EFD39460505FED9402505AED25E024B0E7
:100CB500FDEFC4540FF513EF540FF514AF05120EE5
:100CC50078AF14120E8074E02512F512E4FC75F06D
:100CD50010E512A42403F582E5F03400120E620C2F
:100CE500BC08EBED04FF120E78AF14120E80E4FC85
:100CF50075F010E512A42404F582E5F03400120E17
:050D0500620CBC08EBCC
:010D0A0022C6
:060D53008F088D098B0AD8
:100D5900E4F50EE50EC3950A5035AB0BAA0CA90DA7
:100D6900120958FBAD09AF08120CA374082508F540
:100D7900087401250DF50DE4350CF50C050EAB0BCA
:0F0D8900FAA90D1209586007E50EC3940C40C477
:010D98002238
:040D99008F128D1315
:100D9D00E4751701F516F515F514AF131513EF607E
:100DAD001BAB17AA16A915A814AF12E4FCFDFE1271
:100DBD00099E8F178E168D158C1480DEAF17AE160B
:040DCD00AD15AC14A0
:010DD10022FF
:040C1D008F088D09A6
:100C2100E4F511F510E510C3950E5075C3E50E9569
:100C31001014FD7F0A120D99A804A905AA06AB0795
:100C4100AF0DAE0CAD0BAC0A120A29E47B0AFAF91E
:100C5100F8120A29AF03AE07E511702FE50E14FF54
:100C6100E510C39F5025EE701FE50FB4010DE5108F
:100C710075F008A42508FF7B30801DE51075F0088C
:100C8100A42508FF7B208010751101E51075F0087F
:100C9100A42508FFEE2430FBAD09120CA30510803A
:010CA10084CE
:010CA200222F
:040AC7008F088D09FE
:100ACB00E508D394604003020B95E50994054003B8
:100ADB00020B95E50925E0F50924B0F50912095833
:100AEB007003020B95E508C4540FF50AE508540F83
:100AFB00F50BAF09120E80E50A2410FF120E80AF22
:100B0B000B120E80E4FD120958FF75F022EDA424A0
:100B1B00F3F582E5F03405F583E4936F705C900098
:100B2B0001120971FF75F022EDA424F4F582E5F0B2
:100B3B003405F583E4936F7041FCBC1014E5090494
:100B4B00FF120E80E50A2410FF120E80AF0B120E5F
:100B5B008075F022EDA424F5F582E5F03405F583DC
:100B6B00E5822CF582E43583F583E493FF120E6E58
:100B7B000CBC20C674102508F5080DED641E70869C
:0A0B8B00740229F9E43AFA020AE8BC
:010B9500223D
:100DD200E4FD7F40120E80ED44B0FF120E807F10C2
:100DE200120E80E4FF120E80E4FC120958FF120E6C
:100DF2006E740129F9E43AFA0CBC60EE0DBD06D21C
:010E020022CD
:0B0E9600EF1FAC0670011E4C70F6222E
:100E2B00D3EF9400EE940040147D6E7C00ED1D70AA
:0D0E3B00011CED4C70F7EF1F70E61E80E308
:010E48002287
:03000000020E8A63
:0C0E8A00787FE4F6D8FD758117020B9606
:10095800BB010689828A83E0225002E722BBFE029D
:09096800E32289828A83E49322D0
:10097100BB010CE58229F582E5833AF583E022503B
:1009810006E92582F8E622BBFE06E92582F8E22285
:0D099100E58229F582E5833AF583E493229F
:10099E00E88FF0A4CC8BF0A42CFCE98EF0A42CFCF8
:1009AE008AF0EDA42CFCEA8EF0A4CDA8F08BF0A476
:1009BE002DCC3825F0FDE98FF0A42CCD35F0FCEBD5
:1009CE008EF0A4FEA9F0EB8FF0A4CFC5F02ECD399A
:0F09DE00FEE43CFCEAA42DCE35F0FDE43CFC2207
:1009ED0075F008758200EF2FFFEE33FECD33CDCCC1
:1009FD0033CCC58233C5829BED9AEC99E582984044
:100A0D000CF582EE9BFEED9AFDEC99FC0FD5F0D620
:100A1D00E4CEFBE4CDFAE4CCF9A88222B800C1B94A
:100A2D000059BA002DEC8BF084CFCECDFCE5F0CB88
:100A3D00F97818EF2FFFEE33FEED33FDEC33FCEBC1
:100A4D0033FB10D703994004EB99FB0FD8E5E4F97C
:100A5D00FA227818EF2FFFEE33FEED33FDEC33FC69
:100A6D00C933C910D7059BE99A4007EC9BFCE99A5D
:100A7D00F90FD8E0E4C9FAE4CCFB2275F010EF2FA2
:100A8D00FFEE33FEED33FDCC33CCC833C810D707A2
:100A9D009BEC9AE899400AED9BFDEC9AFCE899F8DD
:0E0AAD000FD5F0DAE4CDFBE4CCFAE4C8F92270
:0C0ABB00A42582F582E5F03583F5832246
:00000001FF
