:0300000002089162
:0C089100787FE4F6D8FD7581480208D895
:100B62007F507EC3120B7B7F507EC3120B7B7F5064
:090B72007EC3120B7B7F507EC391
:0B0B7B00EF1FAC0670011E4C70F6224C
:0C000E00C290120B62D290120B6280F4C0
:100AFD00021B0000021D0000021F00000223000067
:100B0D0002250000020E0000021000000227000066
:100B1D00022B000002290000022D0000022100001E
:0C0B2D0002080000020A0000020C000098
:100B3A00C28C758CFC758A66D28C0509E50970022F
:100B4A000508C3951CE508951B400CE4F508F50952
:070B5A00AA13A9141204778D
:010B61002271
:100B8600E52264014521700DF521F522852A8C8523
:100B96002E8AC2902275210075220185288C852C0B
:040BA6008AD290223D
:03000B000209D512
:1009D500C0E0C0F0C083C082C0D075D000C000C0E8
:1009E50001C002C003C004C005C006C007E52464F9
:1009F5000145237005120B3A800BE50F6401450E86
:100A05007003120B86D007D006D005D004D003D0D2
:100A150002D001D000D0D0D082D083D0F0D0E03247
:100A25007523007524018E1B8F1C8B128A13891464
:100A35005389F0438901758CFC758A66D2AFD2A9BA
:100A4500D28CD2B9C3E51C9401E51B648094804027
:100A550017AE1BAF1CEE3395E0FDFCE47B607AEA34
:0B0A6500F9F8C31204615002C28C2299
:05000300C2A9C28C221D
:03001B0002091DBA
:10091D00C0E0C0F0C083C082C0D075D000C000C0A0
:0D092D0001C002C003C004C005C006C00721
:10093A00C28E758DFC758B6BD28E050BE50B700222
:10094A00050AC3951EE50A951D400D750A00750B2B
:08095A0000AA16A91712047788
:10096200D007D006D005D004D003D002D001D000E9
:0B097200D0D0D082D083D0F0D0E03293
:100A70007525007526018E1D8F1E8B158A16891708
:100A800053890F438910758DFC758B6BD2AFD2AB38
:100A9000D28EC3E51E9401E51D648094804017AE9C
:100AA0001DAF1EEE3395E0FDFCE47B607AEAF9F8B9
:090AB000C31204615002C28E223F
:05001E00C2ABC28E22FE
:03002B0002097D4A
:10097D00C0E0C0F0C083C082C0D075D000C000C040
:0D098D0001C002C003C004C005C006C007C1
:10099A00C2CF050DE50D7002050CC39520E50C9537
:1009AA001F400D750C00750D00AA19A91A120477BB
:1009BA00D007D006D005D004D003D002D001D00091
:0B09CA00D0D0D082D083D0F0D0E0323B
:100BAA008E1F8F208B188A19891AE4F5C9F5C87522
:100BBA00CA6675CBFCD2AFD2ADD2CAD2BDC2CF22E1
:04054B008E2F8F3030
:10054F00AC2FAD30EC12034AA804A905AA06AB07DD
:10055F00E4FFFE7D617C4912022F1203838F388ED8
:10056F00378D368C35E4F53CF53BF53AF539F540EA
:10057F00F53FF53EF53DF544F543F542F541F548B8
:10058F00F547F546F545C3E53094B8E52F648094FB
:10059F008B400CEC1203457B9A7A9979D9801EC354
:1005AF00E53094D0E52F648094874025AF38AE377F
:1005BF00AD36AC35EC120345E4FBFA79F078401216
:1005CF000126E4FBFA7920784112022F120383806F
:1005DF0027C3E5309484E52F648094834022E47F21
:1005EF0009FEFDFCAB38AA37A936A835120404E47E
:1005FF007B0AFAF9F8120AB98F388E378D368C3597
:10060F00750E00750F01E4FFFE7D807C3FAB34AAB1
:10061F0033A932A8311202CC5003020861E4FFFE65
:10062F007DC67C42AB34AA33A932A8311202CC600A
:10063F00054003020861C3E5309411E52F648094EF
:10064F00805003020861AF38AE37AD36AC35EC12CF
:10065F000345AB34AA33A932A831120126E4FBFAC1
:10066F0079C8784212022FA804A905AA06AB07E49D
:10067F00FFFE7D807C47120031120383E4FB7A0179
:10068F00F9F8120AB98F3C8E3B8D3A8C39AF38AEE0
:10069F0037AD36AC35EC120345AB34AA33A932A8CB
:1006AF0031120126E4FBFA79C8784212022FA8040E
:1006BF00A905AA06AB07E4FFFE7D807C4712003137
:1006CF00120383E4FB7A01F9F8120AB9AC00AD0109
:1006DF00AE02AF038F408E3F8D3E8C3DAB34AA33BD
:1006EF00A932A831E4FFFE7DC87C42120031C0045C
:1006FF00C005C006C007AF38AE37AD36AC35EC120B
:10070F000345D003D002D001D000120126E4FBFA3A
:10071F0079C8784212022FA804A905AA06AB07E4EC
:10072F00FFFE7D807C47120031120383E4FB7A01C8
:10073F00F9F8120AB98F448E438D428C41AB34AA1B
:10074F0033A932A831E4FFFE7DC87C42120031C0CC
:10075F0004C005C006C007AF38AE37AD36AC35ECB8
:10076F00120345D003D002D001D000120126E4FBC2
:10077F00FA79C8784212022FA804A905AA06AB0776
:10078F00E4FFFE7D807C47120031120383E4FB7A85
:10079F0001F9F8120AB9AC00AD01AE02AF038F48F0
:1007AF008E478D468C45AE29AF2AEE3395E0FDFC82
:1007BF00E4FBFA7901F8C31204614012AE2DAF2E9B
:1007CF00EE3395E0FDFCE4F8C31204615015E4F537
:1007DF0048F547754601F545F548F547754601F566
:1007EF0045803AE4FFFE7D01FCAB3CAA3BA93AA849
:1007FF0039D31204615013E4FFFE7D01FCAB40AA14
:10080F003FA93EA83D1204614013E4F53CF53B754A
:10081F003A01F539F540F53F753E01F53D853B272A
:10082F00853C28853F2B85402C85432985442A8587
:10083F00472D85482ED2907521007522015389F0DE
:10084F0043890185288C852C8AD2AFD2A9D2B9D2FF
:10085F008C22E4FFFE7D807C3FAB34AA33A932A803
:10086F00311202CC5003C29022E4FFFE7DC67C42BF
:10087F00AB34AA33A932A8311202CC60044002D2A1
:01088F0090D8
:010890002245
:10002E000203EFE86480F8E933E83360110460F00E
:10003E00ED33EC337009E8FCE9FDEAFEEBFF220438
:10004E0060DED3EB9FEA9EE99DE8C2E78CF0C2F733
:10005E0095F0400CE8CCF8E9CDF9EACEFAEBCFFBFF
:10006E001203BA85D0F05804700320D5B3E804709B
:10007E00075002B2D50203F992D5EC0460F7E4CC36
:10008E00C0E0C398F8603B94186008400DD0E0FBC8
:10009E000203D1E4FBFAC9FC8028E830E406E4C987
:1000AE00FBE4CAFCE830E305E4C9CACBFCE854071C
:1000BE006010F8C3E913F9EA13FAEB13FBEC13FC27
:1000CE00D8F130F52FC3E49CFCEF9BFFEE9AFEEDCA
:1000DE0099FDD0E0FBEF4E4D4C701222DB03020374
:1000EE00F6EC2CFCEF33FFEE33FEED33FDED30E797
:1000FE00EB0203D1EF2BFFEE3AFEED39FDD0E0FB24
:10010E0050130BBB00030203F9ED13FDEE13FEEFCC
:08011E0013FFEC13FC0203D1F6
:10012600EC4D6011E8497017ED33EC3304600DE4D3
:10013600FCFFFEFD22E933E8330470F80203EF12F8
:1001460003BA58046009E4CC2481500628500902F9
:1001560003F92840030203F6C0E0EB4A7044B98075
:1001660006D0E0FB0203E5EF4E701CBD8008EBFFF6
:10017600EAFEE9FD80EBE98DF0A4FEE5F002020F50
:10018600E9CDF9EAFEEBFFEF89F0A4FCE5F0CE89B4
:10019600F0A42EFFE435F0CD89F0A42DFEE435F071
:1001A6008067EF4E7005BD80D780C3EF8BF0A4AC9F
:1001B600F0EE8BF0A42CFCE435F0F8EF8AF0A42CDA
:1001C600E5F038FCE433CB8DF0A42CFCE5F03BF8ED
:1001D600EE8AF0A42CFCE5F038F8E433CF89F0A4DD
:1001E6002CFCE5F038CF3400CE89F0A42FFFE5F0E3
:1001F6003EFEE433C98DF0A42EFEE5F039CD8AF03B
:10020600A42FFFE5F03EFEE43DFD33D0E0FB5007B2
:100216000BBB000F0203F9EC2CFCEF33FFEE33FEB1
:06022600ED33FD0203D1DF
:10022C000203F9EC5D046005E8590470030203EF66
:10023C001203BA580460F6EC4860F2EC7004FDFE50
:10024C00FF22C860DB2481C85009C39860025006A5
:10025C000203F69850CAF582E9294B4A7005AB8225
:10026C000203E575F0007C1A7880C3EF9BEE9AEDE3
:10027C0099400DC3EF9BFFEE9AFEED99FDE842F01D
:10028C00DC23ACF0D0E0FFD0E0FED0E0FDAB822070
:10029C00E7101BEB60BAEC2CFCEF33FFEE33FEEDFA
:1002AC0033FD0203D1E803F830E705C0F075F00028
:1002BC00EF2FFFEE33FEED33FD40B830E7C280AADE
:1002CC0074F8CC6480CCC86480C8F58204604FC3D9
:1002DC00EB9FF5F0EA9E42F0E99D42F0E89C45F078
:1002EC00603C501DE5825FFFE582D313CB5BCBF402
:1002FC002B5582FB50280ABA002409B9002008802B
:10030C001DE5825BFBE582D313CF5FCFF4C3132FC4
:10031C005582FF50090EBE00050DBD00010CC3EB4C
:10032C009FF5F0EA9E42F0E99D42F0E89C45F060B2
:09033C0007CC4820E701B3EC22D4
:1003450075F020800E75F010800575F0087D007E33
:10035500007F003392D530D503120453EC3340109F
:10036500EF33FFEE33FEED33FDEC33FCD5F0ED223C
:0E037500E5F0247EA2D513CC92E7CDCEFF2278
:10038300EDD2E7CD33EC3392D524814006E4FFFE72
:10039300FDFC22FCE4CFCECDCC24E0501174FF80D1
:1003A300EDC3CC13CCCD13CDCE13CECF13CF04706E
:0703B300F030D5DE02045317
:1003BA00E9D2E7C933E833F892D5EDD2E7CD33EC89
:0703CA0033FC5002B2D52202
:1003D100EC30E7100FBF000C0EBE00080DBD00048D
:1003E1000BEB6014A2D5EB13FCED92E7FD2274FF39
:1003F100FCFDFEFF22E480F8A2D574FF13FC7D8092
:03040100E480EFA5
:10089D0002000EE493A3F8E493A34003F68001F263
:1008AD0008DFF48029E493A3F85407240CC8C3335C
:1008BD00C4540F4420C8834004F456800146F6DF2B
:1008CD00E4800B0102040810204080900AFDE47EB4
:1008DD00019360BCA3FF543F30E509541FFEE49320
:1008ED00A360010ECF54C025E060A840B8E493A3E7
:1008FD00FAE493A3F8E493A3C8C582C8CAC583CA12
:10090D00F0A3C8C582C8CAC583CADFE9DEE780BEC9
:010B390000BB
:10040400E88FF0A4CC8BF0A42CFCE98EF0A42CFC97
:100414008AF0EDA42CFCEA8EF0A4CDA8F08BF0A415
:100424002DCC3825F0FDE98FF0A42CCD35F0FCEB74
:100434008EF0A4FEA9F0EB8FF0A4CFC5F02ECD3939
:0F044400FEE43CFCEAA42DCE35F0FDE43CFC22A6
:100AB900C2D5E830E70FB2D5E4C39BFBE49AFAE468
:100AC90099F9E498F8EC30E717B2D5120AEF120455
:100AD900B9E4C39BFBE49AFAE499F9E498F8800332
:100AE9001204B930D50DE4C39FFFE49EFEE49DFDD9
:040AF900E49CFC225B
:0E045300C3E49FFFE49EFEE49DFDE49CFC22BA
:10046100EB9FF5F0EA9E42F0E99D42F0EC6480C812
:0604710064809845F022B2
:060477008A838982E47310
:10047D0075F008758200EF2FFFEE33FECD33CDCC36
:10048D0033CCC58233C5829BED9AEC99E5829840B9
:10049D000CF582EE9BFEED9AFDEC99FC0FD5F0D696
:1004AD00E4CEFBE4CDFAE4CCF9A88222B800C1B9C0
:1004BD000059BA002DEC8BF084CFCECDFCE5F0CBFE
:1004CD00F97818EF2FFFEE33FEED33FDEC33FCEB37
:1004DD0033FB10D703994004EB99FB0FD8E5E4F9F2
:1004ED00FA227818EF2FFFEE33FEED33FDEC33FCDF
:1004FD00C933C910D7059BE99A4007EC9BFCE99AD3
:10050D00F90FD8E0E4C9FAE4CCFB2275F010EF2F17
:10051D00FFEE33FEED33FDCC33CCC833C810D70717
:10052D009BEC9AE899400AED9BFDEC9AFCE899F852
:0E053D000FD5F0DAE4CDFBE4CCFAE4C8F922E5
:00000001FF
