:08087D001208661202CA80FB9A
:1008050011223F065B4F666D7D077F6F777C395EF2
:03081500797100F6
:06040F008B188A19891AFE
:10041500E4F51BED14F51CF51BE51BC3940840031F
:100425000204A6C37407951BB40800504D90043907
:10043500F828287302045102045502045902045D88
:10044500020461020469020471020479D2A4800ED7
:10045500D2A48012D2A48016D2A4801AC2A4D2A398
:10046500D2A28016C2A4D2A3C2A2800EC2A4C2A3E5
:10047500D2A28006C2A4C2A3C2A2C3E51B951CFFDB
:10048500E49400AB18AA19A91A8F82F58312020405
:10049500F5807F647E00120872E4F580051B020476
:0104A5001E38
:0104A6002233
:10083600C2B77F4B7E00120872D2B77F027E0002DB
:02084600087236
:10066D00E4F51F30B712E51FC39414500B051F7F1F
:10067D00017E0012087280EBE51FC3941440037FC6
:10068D000122E4F51F20B712E51FC39414500B058A
:10069D001F7F017E0012087280EBE51FC39414408A
:0606AD00037F01227F0023
:0106B3002224
:10000300E4F521C2B70000D2B7000030B70575216F
:0F001300018003E4F5217F057E00120872AF2102
:0100220022BB
:1007C100E4F51FF520FFF51F120003EFC4333333A7
:1007D1005480FEE520C3134EF520051FE51FC39489
:0507E1000840E5AF2017
:0107E60022F0
:0206F4008F1F56
:1006F600E4F520F521F520E51F5401F521E51FC39A
:1007060013F51FE521600FC2B70000D2B77F067E42
:1007160000120872800DC2B77F067E00120872D2E0
:0C072600B700000520E520C3940840CB7C
:0107320022A4
:1008480012083612066D7FCC1206F47F440206F4B5
:0708850012083612066D2275
:10053300E4FFF51CF51DF51E1208481208361206D5
:100543006D7FCC1206F47FBE1206F41207C18F1C16
:100553001207C1EFFE7C00E4251CF51EEC3EF51DE1
:1005630054F8FEEEB4F821E51EF4FFE51DF4FEEFAA
:100573002401F51EE43EF51DFCAD1EE4120131E439
:10058300FBFA798078BD800FAC1DAD1EE4120131FA
:10059300E4FBFA7980783D1200268F1B8E1A8D19A1
:0A05A3008C18AF1BAE1AAD19AC188E
:0105AD00222B
:0B087200EF1FAC0670011E4C70F62258
:1007E700D3EF9400EE940040147D6E7C00ED1D70F5
:0D07F700011CED4C70F7EF1F70E61E80E353
:0108040022D1
:04081800023D00009D
:10082000439850438920758780758DFA858D8BC2DA
:06083000ACD2AFD28E2213
:0E085800C2ACC2998F993099FDC299D2AC22E0
:100797008B3F8A408941AB3FAA40A9411201EBFF39
:1007A70060171208587F057E0012087274012541F0
:0A07B700F541E43540F54080DD22F5
:1005AE0041542B43495053454E443D302C37004166
:1005BE00542B43574D4F44453D320041542B435726
:1005CE005341503D225052454348494E222C2270F1
:1005DE0072656368696E313638222C31312C3000E9
:1005EE0041542B43495041503D223139322E313640
:1005FE00382E342E31220041542B4349504D55583C
:10060E003D310041542B4349505345525645523DBE
:07061E00312C3830383000A8
:03081C0001420096
:100625008B1B8A1C891DAB1BAA1CA91D1201EBFF84
:1006350060171208587F057E001208727401251D87
:10064500F51DE4351CF51C80DD7F057E0012087262
:100655007F0D1208587F057E001208727F0A120866
:08066500587FE87E030207E75D
:100733008B188A19891A7BFF7A0579AE120625ABC5
:1007430018AA19A91A1201EBFF60171208587F059E
:100753007E001208727401251AF51AE43519F51989
:0707630080DD7F0A02085847
:10076A007BFF7A0579BD1206257BFF7A0579C912C6
:10077A0006257BFF7A0579EE1206257BFF7A067934
:0D078A00051206257BFF7A0679110206256F
:0C08660012082012088512076AD2AC228A
:1002CA00E4F508F5090509E50970020508AE08FF15
:1002DA007C007D32120231ED4C7014120533E4FBBE
:1002EA00FA7920784112002612016A8E0A8F0BC30E
:1002FA00E50A648094805013C3E4950BF50BE495EA
:10030A000AF50A750C4075112D8006E4F50C751175
:10031A002BAE0AAF0B7C037DE812028674222FF8FB
:10032A00E6F50DAE0AAF0B7C037DE8120286AA043D
:10033A00AB057D647C00AF03AE0212028674222FE5
:10034A00F8E6F50E7D647C00AF03AE02120286AABF
:10035A0004AB057D0A7C00AF03AE0212028674224A
:10036A002FF8E64480F50F7D0A7C00AF03AE021237
:10037A00028674222DF8E6F5107B007A00790C7D4E
:10038A000412040FAE08AF097C007D64120231ED3D
:10039A004C60030202CFAE0AAF0B7C037DE8120267
:1003AA0086EF2430F512AE0AAF0B7C037DE8120209
:1003BA0086AA04AB057D647C00AF03AE02120286F6
:1003CA00EF2430F5137D647C00AF03AE021202867F
:1003DA00AA04AB057D0A7C00AF03AE02120286EFC7
:1003EA002430F51475152E7D0A7C00AF03AE021277
:1003FA000286ED2430F516E4F517FB7A007911121E
:05040A0007330202CFE0
:030023000206B41E
:0906B400C0E0C0D075D000C00008
:1006BD0030982DC29874332542F8A699E533B42BA2
:1006CD000405428003754200E542B40A13754200E9
:1006DD00E53CB43104C2A08007E53CB43202D2A09F
:0706ED00D000D0D0D0E032B4
:10002600EC4D6011E8497017ED33EC3304600DE4D4
:10003600FCFFFEFD22E933E8330470F80201D61214
:1000460001A158046009E4CC248150062850090215
:1000560001E02840030201DDC0E0EB4A7044B980AC
:1000660006D0E0FB0201CCEF4E701CBD8008EBFF12
:10007600EAFEE9FD80EBE98DF0A4FEE5F002010F52
:10008600E9CDF9EAFEEBFFEF89F0A4FCE5F0CE89B5
:10009600F0A42EFFE435F0CD89F0A42DFEE435F072
:1000A6008067EF4E7005BD80D780C3EF8BF0A4ACA0
:1000B600F0EE8BF0A42CFCE435F0F8EF8AF0A42CDB
:1000C600E5F038FCE433CB8DF0A42CFCE5F03BF8EE
:1000D600EE8AF0A42CFCE5F038F8E433CF89F0A4DE
:1000E6002CFCE5F038CF3400CE89F0A42FFFE5F0E4
:1000F6003EFEE433C98DF0A42EFEE5F039CD8AF03C
:10010600A42FFFE5F03EFEE43DFD33D0E0FB5007B3
:100116000BBB000F0201E0EC2CFCEF33FFEE33FECD
:06012600ED33FD0201B8FB
:10012C0075F020800E75F010800575F0087D007E4E
:10013C00007F003392D530D5031202BCEC33401053
:10014C00EF33FFEE33FEED33FDEC33FCD5F0ED2257
:0E015C00E5F0247EA2D513CC92E7CDCEFF2293
:10016A00EDD2E7CD33EC3392D524814006E4FFFE8D
:10017A00FDFC22FCE4CFCECDCC24E0501174FF80EC
:10018A00EDC3CC13CCCD13CDCE13CECF13CF047089
:07019A00F030D5DE0202BCCB
:1001A100E9D2E7C933E833F892D5EDD2E7CD33ECA4
:0701B10033FC5002B2D5221D
:1001B800EC30E7100FBF000C0EBE00080DBD0004A8
:1001C8000BEB6014A2D5EB13FCED92E7FD2274FF54
:1001D800FCFDFEFF22E480F8A2D574FF13FC7D80AD
:0301E800E480EFC1
:030000000204A750
:0C04A700787FE4F6D8FD7581420204EE77
:1001EB00BB010689828A83E0225002E722BBFE0212
:0901FB00E32289828A83E4932245
:10020400BB010CE58229F582E5833AF583E02250AF
:1002140006E92582F8E622BBFE06E92582F8E222F9
:0D022400E58229F582E5833AF583E4932213
:10023100BC000BBE0029EF8DF084FFADF022E4CCB1
:10024100F875F008EF2FFFEE33FEEC33FCEE9DEC7A
:10025100984005FCEE9DFE0FD5F0E9E4CEFD22EDC0
:10026100F8F5F0EE8420D21CFEADF075F008EF2F0A
:10027100FFED33FD4007985006D5F0F222C398FDFB
:050281000FD5F0EA2298
:10028600C2D5EC30E709B2D5E4C39DFDE49CFCEE93
:1002960030E715B2D5E4C39FFFE49EFE120231C3D8
:1002A600E49DFDE49CFC800312023130D507C3E4D3
:0602B6009FFFE49EFE2202
:0E02BC00C3E49FFFE49EFEE49DFDE49CFC2253
:1004B30002087DE493A3F8E493A34003F68001F2DA
:1004C30008DFF48029E493A3F85407240CC8C3334A
:1004D300C4540F4420C8834004F456800146F6DF19
:1004E300E4800B0102040810204080900805E47E9C
:1004F300019360BCA3FF543F30E509541FFEE4930E
:10050300A360010ECF54C025E060A840B8E493A3D4
:10051300FAE493A3F8E493A3C8C582C8CAC583CAFF
:10052300F0A3C8C582C8CAC583CADFE9DEE780BEB7
:01081F0000D8
:00000001FF
