:03000000020254A5
:0C025400787FE4F6D8FD75812A02029B39
:10056200CEC2B6C8A3BA00CAAAB6C8A3BA000000CF
:010572000088
:04058F00020800005E
:10051000D3EF9400EE940040147D6E7C00ED1D70CE
:0D052000011CED4C70F7EF1F70E61E80E32C
:01052D0022AB
:0C058200152A152A152A152A152A152AF3
:01058E00224A
:10000300E4FD30B4FD120582120582120582E4FE7E
:1000130030B4010E20B4FDEF25E0FFEE42070DBD25
:0200230008E0F3
:0100250022B8
:1002E000C2B47F147E00120510D2B412058212052A
:1002F0008220B44F30B4FD20B4FD1200038F2812C9
:1003000000038F29120003A907120003AC07120093
:1003100003D2B4E529FBE5282BFBE433FAE9758326
:10032000002BFBE5833AFAEC2BFBE5833AFAEFB5B9
:100330000311E583B5020C85280A85290C89168CE2
:03034000178F0B09
:010343002297
:0B05A900EF1FAC0670011E4C70F62224
:1001AE0078257C007D007BFF7A0579707E007F03C9
:1001BE001200FE0509E509AE087002050814FFE4F9
:1001CE00FCFD7B507AC3F9F8C31201925005E4F599
:1001DE0008F509AE08AF097C007D1912013DED4C02
:1001EE007063B2B51202E0E516C39464400375164F
:1001FE0063E51675F00A842430F525E51675F00AC8
:10020E0084E5F02430F526E4F527FB7A0079257D88
:10021E00037F0212039CE50AC394644003750A63CC
:10022E00E50A75F00A842430F525E50A75F00A848E
:10023E00E5F02430F526E4F527FB7A0079257D03D9
:05024E007F0312039C78
:010253002288
:1003E50012054912052E7BFF7A057962E4FD7F022D
:1003F50012039C7BFF7A057969E4FD7F0312039C58
:100405007F647E001205A97BFF7A0179AE7F147E99
:06041500001204F080FE5D
:1004D0008081828384858687909192939495969764
:1004E00088898A8B8C8D8E8F98999A9B9C9D9E9FD4
:0F04AE001204BDEC54F0FF1204BDECC454F0FF77
:1004BD00E4FEC2A7EF25E0FF92A6D2A7C2A70EBE0B
:0204CD0008F035
:0104CF00220A
:10041B00E4FFFEFDEE25E0FEC2A7D2A7C2A730A6E1
:10042B00010E0DBD08EEE4FDEF25E0FFC2A7D2A73C
:10043B00C2A730A6010F0DBD08EEEF540FFFEE540F
:03044B00F02FFF90
:01044E00228B
:0D059C007FFC1204BD12041BEF20E7F422C7
:1004810075F008E528A42529F582E435F0F583E522
:0E0491008224D0F582E5833404F583E493FFE2
:0F049F00AC07D2A512059C7FF81204AEC2A522AD
:0F057300AC07D2A512059C7FFA1204AEC2A522D6
:100549007F3012049F7F0312049F7F0C12049F7F48
:090559000112049F7F0602049FB9
:10044F00AB07AA05EB14600C14600D14600E2403A7
:10045F007B80800A7B9080067B8880027B9853028A
:10046F00077F3012049FEA2BFF12049FEA2BFF0233
:02047F00049FD8
:10052E007F3012049F7F8012049FE4FB7F20120510
:0B053E00730BBB40F7E4FDFF02044F0D
:10039C008F288D297F3012049F1204811201246052
:1003AC0037E529B40805E4F5290528E528B4040344
:1003BC00E4F528120481120124FF1205737401293B
:1003CC00F9E43AFA120124FF60D212057374012980
:0903DC00F9E43AFA052980C42273
:08059300022300000218000021
:03002B0002034489
:10034400C0E0C0F0C083C082C0D075D000C000C07F
:0D03540001C002C003C004C005C006C00700
:10036100C2CF0519E51970020518C39524E5189542
:1003710023400D751800751900AA21A9221201A8A0
:10038100D007D006D005D004D003D002D001D000D0
:0B039100D0D0D082D083D0F0D0E0327A
:1004F0008E238F248B208A218922E4F5C9F5C875C3
:10050000CA6675CBFCD2AFD2ADD2CAD2BDC2CF22A1
:100260000203E5E493A3F8E493A34003F68001F2CC
:1002700008DFF48029E493A3F85407240CC8C3339F
:10028000C4540F4420C8834004F456800146F6DF6E
:10029000E4800B010204081020408090058FE47E6A
:1002A000019360BCA3FF543F30E509541FFEE49363
:1002B000A360010ECF54C025E060A840B8E493A32A
:1002C000FAE493A3F8E493A3C8C582C8CAC583CA55
:1002D000F0A3C8C582C8CAC583CADFE9DEE780BE0D
:01059B00005F
:10002E00E709F608DFFA8046E709F208DFFA803EB4
:10003E0088828C83E709F0A3DFFA8032E309F608A1
:10004E00DFFA8078E309F208DFFA807088828C8309
:10005E00E309F0A3DFFA806489828A83E0A3F608BD
:10006E00DFFA805889828A83E0A3F208DFFA804C97
:10007E0080D280FA80C680D4806980F2803380106E
:10008E0080A680EA809A80A880DA80E280CA8033D7
:10009E0089828A83ECFAE493A3C8C582C8CCC5834F
:1000AE00CCF0A3C8C582C8CCC583CCDFE9DEE7801F
:1000BE000D89828A83E493A3F608DFF9ECFAA9F09E
:1000CE00EDFB2289828A83ECFAE0A3C8C582C8CCF4
:1000DE00C583CCF0A3C8C582C8CCC583CCDFEADE0D
:1000EE00E880DB89828A83E493A3F208DFF980CC6F
:1000FE0088F0EF60010E4E60C388F0ED2402B40468
:10010E000050B9F582EB2402B4040050AF2323450E
:06011E00822390007E73B5
:10012400BB010689828A83E0225002E722BBFE02D9
:09013400E32289828A83E493220C
:10013D00BC000BBE0029EF8DF084FFADF022E4CCA6
:10014D00F875F008EF2FFFEE33FEEC33FCEE9DEC6F
:10015D00984005FCEE9DFE0FD5F0E9E4CEFD22EDB5
:10016D00F8F5F0EE8420D21CFEADF075F008EF2FFF
:10017D00FFED33FD4007985006D5F0F222C398FDF0
:05018D000FD5F0EA228D
:10019200EB9FF5F0EA9E42F0E99D42F0EC6480C8E4
:0601A20064809845F02284
:0601A8008A838982E473E2
:00000001FF
