:020000040800F2
:100000004804002001010008090100080B01000854
:100010000D0100080F010008110100080000000098
:1000200000000000000000000000000013010008B4
:100030001501000800000000170100081901000860
:100040001B0100081B0100081B0100081B01000820
:100050001B0100081B0100081B0100081B01000810
:100060001B0100081B0100081B0100081B01000800
:100070001B0100081B0100081B0100081B010008F0
:100080001B0100081B0100081B0100081B010008E0
:100090001B0100081B0100081B0100081B010008D0
:1000A0001B0100081B0100081B0100081B010008C0
:1000B0006906000889060008AD0600081B01000853
:1000C0001B0100081B0100081B0100081B010008A0
:1000D0001B0100082D0900085D0900088D090008B2
:1000E0001B0100081B0100081B010008DFF80CD0F1
:1000F00000F018F800480047A90A0008480400204A
:100100000648804706480047FEE7FEE7FEE7FEE7B1
:10011000FEE7FEE7FEE7FEE7FEE7FEE7090600086A
:10012000ED000008064C074D06E0E06840F00103D2
:1001300094E8070098471034AC42F6D3FFF7DAFF93
:10014000400B0008600B00082DE9F0410246002535
:100150000026002000230024002791F803C00CF0A3
:100160000F0591F803C00CF0100CBCF1000F03D088
:1001700091F802C04CEA050591F800C0BCF1000FEF
:1001800031D0146800202BE04FF0010C0CFA00F382
:10019000B1F800C00CEA03069E4220D183004FF064
:1001A0000F0C0CFA03F7BC4305FA03FC4CEA0404F9
:1001B00091F803C0BCF1280F06D14FF0010C0CFAE6
:1001C00000FCC2F814C00AE091F803C0BCF1480F6B
:1001D00005D14FF0010C0CFA00FCC2F810C0401C15
:1001E0000828D1D31460B1F800C0BCF1FF0F34DD92
:1001F000546800202EE000F1080C4FF0010808FAC6
:100200000CF3B1F800C00CEA03069E4221D1830032
:100210004FF00F0C0CFA03F7BC4305FA03FC4CEA51
:10022000040491F803C0BCF1280F05D100F1080CBB
:1002300008FA0CF8C2F8148091F803C0BCF1480F1A
:1002400007D100F1080C4FF0010808FA0CF8C2F8C9
:100250001080401C0828CED35460BDE8F081000017
:10026000F8B506460C461546052E59D2DFE806F0CD
:100270000314253647000121042000F0B9F8A0B28C
:10028000ADF800008DF8035003208DF80200694698
:100290002648FFF759FF45E00121082000F0A8F8A3
:1002A000A0B2ADF800008DF8035003208DF80200D5
:1002B00069461F48FFF748FF34E00121102000F095
:1002C00097F8A0B2ADF800008DF8035003208DF828
:1002D000020069461748FFF737FF23E0012120207D
:1002E00000F086F8A0B2ADF800008DF803500320AE
:1002F0008DF8020069461048FFF726FF12E0012141
:10030000402000F075F8A0B2ADF800008DF8035061
:1003100003208DF8020069460848FFF715FF01E049
:100320000020F8BD00BF0120FBE7000000080140ED
:10033000000C014000100140001401400018014071
:1003400070B5002100230F22C47804B3154C246833
:1003500004F4E064C4F5E064210AC1F10403CA4076
:10036000447804FA03F184781440214309010E4CC7
:100370000678A155047804F01F050124AC400578E7
:100380006D11AD0005F1E025C5F8004109E00478E4
:1003900004F01F050124AC40044D0678761145F8A1
:1003A000264070BD0CED00E000E400E080E100E0DC
:1003B00002490143024A1160704700000000FA053B
:1003C0000CED00E010B54FF4A060FFF7F1FF10BD99
:1003D00029B1064AD2690243044BDA6104E0034AB8
:1003E000D2698243014BDA6170470000001002407D
:1003F00029B1064A92690243044B9A6104E0034A18
:1004000092698243014B9A617047000000100240DC
:10041000012808D14FF0E021096941F001014FF0B6
:10042000E022116107E04FF0E021096921F00101AC
:100430004FF0E0221161704710B56FF0040000F03A
:10044000CFF80D4800680D49B0FBF1F00C49087079
:100450000846007800EB4001C1EBC0104FF6FF7179
:1004600001EAC000074908800120FFF7D1FF002002
:1004700000F02EF810BD00000400002000127A00E9
:10048000000000200200002010B501460F4B1B8821
:100490004FF0E024636123461B6943F001032361AD
:1004A00000220FE000234FF0E024A36100BF4FF0D3
:1004B000E023186900F001031BB100F48033002B26
:1004C000F5D0521C8A42EDD310BD0000020000207E
:1004D000012808D14FF0E021096941F002014FF0F5
:1004E000E022116107E04FF0E021096921F00201EB
:1004F0004FF0E0221161704710B500F001F810BD17
:100500000CB50020019000903348006840F4803022
:100510003149086000BF3048006800F400300090A6
:100520000198401C0190009818B90198B0F5A06F8F
:10053000F1D12948006800F4003010B1012000908A
:1005400001E0002000900098012843D12348006872
:1005500040F01000214908600846006820F00300C0
:1005600008600846006840F0020008601A484068C9
:10057000194948600846406848600846406840F4A9
:10058000806048600846406820F47C104860084657
:10059000406840F4E81048600846006840F0807009
:1005A000086000BF0C48006800F000700028F9D017
:1005B0000948406820F00300074948600846406841
:1005C00040F00200486000BF0348406800F00C00A3
:1005D0000828F9D10CBD00000010024000200240A4
:1005E000042808D14FF0E021096941F004014FF0DF
:1005F000E022116107E04FF0E021096921F00401D8
:100600004FF0E0221161704710B51348006840F0C8
:1006100001001149086008464068104908400E4929
:100620004860084600680E4908400B4908600846C3
:10063000006820F4802008600846406820F4FE002E
:1006400048604FF41F008860FFF756FF4FF00060CE
:100650000449086010BD0000001002400000FFF8CF
:10066000FFFFF6FE08ED00E010B50648806818B1FF
:1006700004498868804704E003214FF0804000F07F
:100680002FF810BD2C00002010B50648C06818B126
:100690000449C868804703E00321034800F020F8BC
:1006A00010BD00002C0000200004004010B50648DA
:1006B000006918B104490869804703E00321034831
:1006C00000F00EF810BD00002C00002000080040D3
:1006D00011B1024A42F82010704700002C0000209F
:1006E000CA430282704721B1028842F001020280AF
:1006F00004E002884FF6FE731A400280704730B55E
:100700000246002000230024158A05EA010395898A
:1007100005EA010413B10CB1012000E0002030BD56
:100720001AB183890B43838102E083898B438381E0
:1007300070470000002202881D4B98420ED01D4BCE
:1007400098420BD0B0F1804F08D01B4B984205D097
:100750001A4B984202D01A4B984204D14FF68F732D
:100760001A404B881A43174B984207D0164B9842B1
:1007700004D04FF6FF431A40CB881A4302808B887F
:1007800083850B8803850A4B98420BD0094B98420E
:1007900008D00E4B984205D00D4B984202D00D4B1D
:1007A000984201D10B7A03860123838270470000AF
:1007B000002C0140003401400004004000080040CB
:1007C000000C0040001000400014004000400140B8
:1007D00000440140004801402DE9FF4F85B0054627
:1007E0008A469B46129F36480AFB00F947F2305072
:1007F000B9FBF0F084B2012C03DC00241FFA89F865
:1008000017E0012C0ADD49F64040844206DC601EF8
:1008100084B2B9FBF4F01FFA80F80AE044F62060D5
:10082000844206DD27A000F005F9002009B0BDE8EC
:10083000F08FB5F1804F05D11C2601210846FFF746
:10084000C7FD10E02448854205D11D260121022064
:10085000FFF7BEFD07E02148854204D11E26012195
:100860000420FFF7B5FDADF80C80ADF8084000207E
:10087000ADF80E00ADF80A0002A92846FFF75AFFAE
:100880003A4628460799FFF74BFFF0B28DF804006F
:1008900000208DF805000BF0FF008DF806008DF8A4
:1008A000077001A8FFF74CFD3A4628460799FFF765
:1008B00037FF39462846FFF716FF0120B6E700004C
:1008C0004019010054696D5F6D7320697320746F66
:1008D0006F206D7563680000000400400008004050
:1008E0000246012A04D0022A08D0032A12D10BE0C2
:1008F0000B480088C0F3080008800DE00948008814
:10090000C0F30800088007E007480088C0F308002B
:10091000088001E00020704700BF0120FBE70000D5
:1009200004380140044400400448004008B540F247
:100930002551084800F04FF858B169460120FFF7EB
:10094000CFFF0548406820B103484168BDF800006A
:10095000884708BD003801401C00002008B540F25F
:100960002551084800F037F858B169460220FFF7D2
:10097000B7FF0548806820B103488168BDF80000D2
:10098000884708BD004400401C00002008B540F224
:100990002551084800F01FF858B169460320FFF7B9
:1009A0009FFF0548C06820B10348C168BDF800003A
:1009B000884708BD004800401C0000200246002077
:1009C000B1F5007F00D100BF13880B400BB10120AF
:1009D00000E00020704770B5024600240023002587
:1009E000002040F66A16B14200D100BFC1F34215A3
:1009F00001F01F03012606FA03F3012D02D19689A7
:100A0000334006E0022D02D1168A334001E0968A77
:100A100033400C12012606FA04F41688344013B150
:100A20000CB1012000E0002070BDC1F308028280FB
:100A300070470000014A024900F013B8850A000817
:100A40001800002002E008C8121F08C1002AFAD1CD
:100A500070477047002001E001C1121F002AFBD13E
:100A600070472DE9F04116460F460446002503E085
:100A70003946B047641C6D1C20780028F8D1284600
:100A8000BDE8F08170B504460D46E1B20548FFF7B8
:100A9000CCFF00BF40210348FFF790FF0028F9D0AA
:100AA000204670BD0038014008B5FFF78BFCFFF70A
:100AB000C3FC0120022302464FF4FA710090800724
:100AC000FFF78AFE10490220FFF702FE10225102B2
:100AD0000220FFF7C5FB102280210020FFF7C0FB9A
:100AE00001200A4908600EE00020084908604FF420
:100AF0007A70FFF7C9FC01200549C1F89C014FF449
:100B00007A70FFF7C1FCEFE7150B00089C0121424A
:100B10000000214210B501218807FFF7F0FD58B110
:100B20000648006808B9012000E000200349086079
:100B300001218807FFF7D4FD10BD0000B401224257
:100B4000600B0008000000201C000000440A0008A0
:100B50007C0B00081C0000202C040000540A000834
:100B60000000000000A24A04000000000000000095
:0C0B700001020304060708090000000051
:04000005080000ED02
:00000001FF
